:020000040800F2
:10000000081B0020D90200089D830008AD79000874
:1000100099830008FD060008C1A40008EB0200084F
:1000200000000000000000000000000091880008AF
:100030000107000800000000118400086189000821
:10004000F5020008F5020008F5020008F5020008B4
:10005000F5020008F5020008F5020008F5020008A4
:10006000F5020008F5020008F5020008F502000894
:10007000F5020008F5020008F5020008F502000884
:10008000F5020008F5020008F5020008F502000874
:10009000F5020008F5020008F5020008F502000864
:1000A000F5020008F5020008F5020008F502000854
:1000B00000000000F5020008F5020008F502000843
:1000C000F5020008F5020008F5020008F502000834
:1000D000F5020008F5020008F5020008F502000824
:1000E000F5020008F5020008F5020008F502000814
:1000F000F5020008F5020008F5020008F502000804
:10010000F5020008F5020008918A0008F5020008CF
:10011000A18A0008F5020008F5020008F5020008AF
:10012000F5020008F5020008F5020008F5020008D3
:10013000F5020008B1A40008F5020008F502000865
:10014000F50200081D9C0008F5020008F5020008F1
:10015000F5020008F5020008F5020008F5020008A3
:10016000F5020008F5020008F5020008F502000893
:10017000F5020008F5020008F5020008F502000883
:10018000F5020008F5020008F5020008F502000873
:10019000F5020008F5020008F5020008F502000863
:1001A000F5020008F5020008F5020008F502000853
:1001B000F502000800000000F5020008F502000842
:1001C000F502000800000000F5020008F502000832
:1001D000F5020008F5020008F5020008F502000823
:1001E000F5020008F5020008F5020008F502000813
:1001F0000000000000000000F5020008F502000801
:10020000F5020008F5020008F5020008F5020008F2
:10021000F5020008F5020008F5020008F5020008E2
:10022000F5020008F5020008F5020008F5020008D2
:10023000F5020008F502000800F002F800F03CF8B2
:100240000AA090E8000C82448344AAF10107DA4531
:1002500001D100F031F8AFF2090EBAE80F0013F047
:10026000010F18BFFB1A43F00103184728CB000009
:1002700048CB0000103A24BF78C878C1FAD852079A
:1002800024BF30C830C144BF04680C607047000010
:100290000023002400250026103A28BF78C1FBD88F
:1002A000520728BF30C148BF0B6070471FB50CF024
:1002B000A6FC1FBD10B510BD00F073F91146FFF785
:1002C000F5FF0AF081F900F091F903B4FFF7F2FFAE
:1002D00003BC00F099F900000A4880470A4800472B
:1002E000FEE7FEE7FEE7FEE7FEE7FEE7FEE7FEE7E6
:1002F000FEE7FEE7FEE7000004480549054A064B15
:1003000070470000198A000839020008081500200B
:10031000081B0020081700200817002053EA020CD1
:1003200000F069802DE9F04B4FF00006002B1FBF55
:10033000B3FA83F503FA05F424FA05F65E4012BF1A
:100340001643B2FA82F502FA05F4C5F120051EBF84
:1003500022FA05FC44EA0C04203556EA044C4FEA24
:10036000144418BF641C4FF000084FF0000990427D
:1003700071EB030C39D3002919BFB1FA81F701FAE7
:1003800007F6B0FA80F700FA07F6C7F120071EBF9C
:1003900020FA07FC46EA0C062037B6FBF4FCA7EB74
:1003A0000507103F07F01F0BCBF120062CFA06F6CD
:1003B0000CFA0BFB44BFB3460026202FA4BF5E46B9
:1003C0004FF0000B5BEA060C08BF4FF0010B19EB76
:1003D0000B0948EB0608ABFB027C06FB02CC0BFBCF
:1003E00003CCC01B71EB0C01C1E70B460246414632
:1003F0004846BDE8F08B13B5084318BF4FF0FF30F7
:100400000146AFF30080BDE81C407047032A40F26C
:10041000308010F0030C00F0158011F8013BBCF1A6
:10042000020F624498BF11F801CB00F8013B38BFBE
:1004300011F8013BA2F1040298BF00F801CB38BFCC
:1004400000F8013B11F0030300F07980083AC0F096
:10045000088051F8043B083A51F804CBA0E8081092
:10046000F5E7121D5CBF51F8043B40F8043BAFF3C5
:100470000080D20724BF11F8013B11F801CB48BF1F
:1004800011F8012B24BF00F8013B00F801CB48BF55
:1004900000F8012B704702F0FF0343EA032242EA0F
:1004A000024200F024B84FF000020429C0F012808C
:1004B00010F0030C00F01B80CCF1040CBCF1020F17
:1004C00018BF00F8012BA8BF20F8022BA1EB0C01EC
:1004D00000F00DB85FEAC17C24BF00F8012B00F8E2
:1004E000012B48BF00F8012B70474FF0000200B508
:1004F000134694469646203922BFA0E80C50A0E847
:100500000C50B1F12001BFF4F7AF090728BFA0E8F4
:100510000C5048BF0CC05DF804EB890028BF40F8C0
:10052000042B08BF704748BF20F8022B11F0804F02
:1005300018BF00F8012B704770477047704710B51F
:10054000203AC0F00B80B1E81850A0E81850B1E88C
:100550001850A0E81850203ABFF4F5AF5FEA027CCB
:1005600024BFB1E81850A0E8185044BF18C918C0FB
:10057000BDE810405FEA827C24BF51F8043B40F89C
:10058000043B08BF7047D20728BF31F8023B48BF81
:1005900011F8012B28BF20F8023B48BF00F8012BBF
:1005A0007047754600F02CF8AE4605006946534684
:1005B00020F00700854618B020B5FFF79DFEBDE886
:1005C00020404FF000064FF000074FF000084FF0BA
:1005D000000BAC46ACE8C009ACE8C009ACE8C00907
:1005E000ACE8C00921F007018D46704710B50446FC
:1005F000AFF300802046BDE81040FFF766BE000064
:10060000004870471800002001491820ABBEFEE7E3
:10061000260002007047000080B584B00290029866
:10062000006807F027FA002860D1FFE70298006809
:1006300080683F21C8F2000108420ED0FFE702990E
:10064000886F40F0100088670299C86F40F0010081
:10065000C86701208DF80F004CE002980168012066
:1006600008600298006807F0D7F90298006A48B15C
:10067000FFE70298006841F20001C4F2026188427B
:1006800033D0FFE700F036FF0190FFE702980068E3
:100690000068C00740BBFFE70298006807F0EAF96E
:1006A00028B9FFE70298006807F0B6F9FFE700F005
:1006B00021FF0199401A032815D3FFE7029800682B
:1006C0000068C00770B9FFE70299886F40F010001A
:1006D00088670299C86F40F00100C86701208DF853
:1006E0000F0007E0FFE7D1E7FFE7FFE700208DF805
:1006F0000F00FFE79DF80F0004B080BDFFE7FEE7A5
:100700007047000072B6FFE7FEE7000081B000907E
:1007100000980068006C01B07047000080B590B090
:100720000E9000208DF837000C900B900E9820B999
:10073000FFE701208DF83F000BE30E98006841F2BF
:100740000001C4F20261884201D0FFE700E0FFE748
:100750000E980069C8B1FFE70E98006841F20001E9
:10076000C4F20261884208D0FFE70E9890F82C008E
:10077000012801D1FFE7FFE706E00E980069012894
:1007800001D1FFE7FFE7FFE7FFE70E98806F50B961
:10079000FFE70E9800F0E2FA0E990020C8670E9964
:1007A00081F87400FFE70E98006807F05BF928B144
:1007B000FFE70E98006807F023F9FFE70E9800683E
:1007C00007F060F9F0B9FFE70E98006807F032F91A
:1007D00040F20400C2F200000068800942F6635152
:1007E000C0F23E51A0FB01108109022000EB410044
:1007F0000990FFE7099820B1FFE7099801380990AF
:10080000F8E7FFE70E98006807F03CF970B9FFE7DA
:100810000E99886F40F0100088670E99C86F40F0FD
:100820000100C86701208DF83700FFE70E980068C7
:1008300007F030F90A900E98806FC006002800F18A
:100840007A82FFE70A98002840F07582FFE70E9849
:10085000806F40F0020020F480700E9988670E9837
:10086000006807F007F900285AD1FFE70E980068E2
:1008700041F20001C4F2026188423FD0FFE70E98C6
:10088000016848F20002C4F2022241F20830C4F2C8
:100890000260914204BF48F20830C4F2022048F2DC
:1008A0000831C4F20221884208D1FFE748F2000073
:1008B000C4F2022007F0DEF8069007E041F20000E3
:1008C000C4F2026007F0D6F80690FFE70698A0B9D8
:1008D000FFE70E980268416848F20003C4F2022361
:1008E00041F20830C4F202609A4204BF48F2083074
:1008F000C4F2022007F0E4F8FFE710E00E99086860
:10090000896807F005F941F20831C4F2026108680C
:100910000E9A5268920C62F395400860FFE7FFE779
:100920000E98006841F20001C4F2026188420ED0C4
:10093000FFE70E9991F82420486C40EA42308A681B
:10094000104391F82C1040EA01400C903DE00E98C5
:10095000017F890390F8242041EA4231436C01F57C
:100960008052002B18BF1146426911430591C07C8B
:100970000006002806D5FFE70E98006920F0004029
:10098000049003E04FF400100490FFE705980499E9
:10099000084303900E98006848F20001C4F2022157
:1009A000884205D1FFE70E9890F84000029005E0DC
:1009B0000E9890F8400040000290FFE703980299DB
:1009C00001430C9808430C90FFE70E9890F82C0018
:1009D00001282BD1FFE70E98006841F20001C4F214
:1009E000026188420BD0FFE70E98016B0020CFF622
:1009F000FE7000EB41410C9808430C9015E00E98F6
:100A000090F8240028B9FFE70C9840F480300C904F
:100A10000AE00E99886F40F0200088670E99C86F31
:100A200040F00100C867FFE7FFE7FFE70E980068A6
:100A300041F20001C4F2026188421CD0FFE70E9827
:100A4000406B50B1FFE70E99486B896B00F47870EA
:100A500001430C9808430C90FFE70E980068C068AB
:100A60004CF21301CFF6F07108400C9908430E992F
:100A70000968C86031E00E98406B50B1FFE70E99ED
:100A8000486B896B00F4E07001430C9808430C90AC
:100A9000FFE70E980068C06848F20D01CFF6DE71DE
:100AA00008400C9908430E990968C8600E98006ABE
:100AB00038B1FFE70E980168026A486C1043486439
:100AC000FFE70E98C06E38B1FFE70E980168C26E5E
:100AD000486C10434864FFE7FFE70E98006841F256
:100AE0000001C4F20261884200F0A380FFE70E9883
:100AF000006806F0CFFF08900E98006806F0AAFF85
:100B000007900898002873D1FFE7079800286FD155
:100B1000FFE70E98017F89030191006848F2000108
:100B2000C4F20221884204D1FFE70E98C06B009006
:100B300004E00E98C06B40000090FFE70198009918
:100B400008430C900E980068C06844F20301884383
:100B50000C9908430E990968C8600E98C06830B1B6
:100B6000FFE70E990868C96806F0B8FFFFE70E981E
:100B700090F85400012829D1FFE70E98406B20B16E
:100B8000FFE70E98806B08B9FFE7FFE70E98006853
:100B900000694FF61E01CFF6004100EA01020E9BEC
:100BA0001968D3F858E0D86DD3F860C040EA0E4019
:100BB00040EA0C00D3F864C040EA0C009B6E40EAA7
:100BC0009300104340F00100086106E00E980168B0
:100BD000086920F001000861FFE70E9800680069CD
:100BE00020F070400E9A1168126D10430861FFE703
:100BF0000E98006901280CD1FFE70E980068006B81
:100C000020F00F000E9A1168926A013A10430863AF
:100C100006E00E980168086B20F00F000863FFE7FC
:100C20000E98806F40F0010020F002000E99886756
:100C300080E00E9890F85400012810D1FFE70E993B
:100C4000886DCB6D0A6E896E1843104301430B9873
:100C500008430B900B9840F001000B90FFE70E98B3
:100C6000006800694FF60241CFF2FF7108400B990E
:100C700008430E99096808610E9908688A6C00217A
:100C800006F064FF0E990868CA6C6FF0FB0106F06D
:100C90005DFF0E98006938B9FFE70E980168886A11
:100CA00060F00F0088621BE00E980069B0F5001F2D
:100CB00014D1FFE70E980068806A0E980168836A75
:100CC000D0F888206FF0030000EB830000F01C03D5
:100CD0006FF00F0098401043886200E0FFE7FFE7E5
:100CE0000E980068C0684FF6F371C8F23F310840B3
:100CF0000C9988420CD1FFE70E990020C8670E9826
:100D0000806F40F0010020F002000E99886710E02B
:100D10000E98806F40F0100020F002000E99886756
:100D20000E99C86F40F00100C86701208DF83700A8
:100D3000FFE7FFE708E00E99886F40F01000886732
:100D400001208DF83700FFE79DF837008DF83F0050
:100D5000FFE79DF83F0010B080BD000080B5B8B03F
:100D6000379000203690359034903390329002A81E
:100D7000C021FFF7BAFB3798006848F20001C4F2BF
:100D8000022188423CD1FFE7002003904FF400404D
:100D900002904FF480402B9002A802F081FD18B120
:100DA000FFE7FFF7AFFCFFE7FFE740F68C40C4F238
:100DB0000260016841F480610160006800F48060B5
:100DC00001900198FFE7FFE740F68C40C4F2026013
:100DD000016841F004010160006800F00400009027
:100DE0000098FFE7012032900320339000203490D8
:100DF00040F60000C4F2022032A900F043F9FFE7F8
:100E000038B080BD80B584B002900298006806F0CA
:100E100041FE002873D1FFE7FFE7029890F87400C5
:100E2000012804D1FFE702208DF80F0070E002993D
:100E3000012081F87400FFE7FFE70298FFF7ECFB61
:100E40008DF807009DF80700002850D1FFE70298B1
:100E5000806F40F4807040F6016188430299886792
:100E60000298006841F20001C4F20261884211D088
:100E7000FFE70298806FC004002806D5FFE70299BB
:100E8000C86F20F00600C86703E002990020C86719
:100E9000FFE703E002990020C867FFE702980168B6
:100EA0001C200860FFE70299002081F87400FFE72A
:100EB0000298006841F20001C4F20261884211D038
:100EC000FFE702980068C0688001002809D5FFE7A5
:100ED0000298806F40F4805020F400500299886797
:100EE000FFE7FFE70298006806F0DCFD06E0FFE799
:100EF0000299002081F87400FFE7FFE703E0022079
:100F00008DF80700FFE79DF807008DF80F00FFE759
:100F10009DF80F0004B080BD80B584B0029000F051
:100F2000E9FA0190029820B9FFE701208DF80F003F
:100F300079E0029890F8540002280DD0FFE702995A
:100F400020208865FFE70299002081F84C00FFE728
:100F500001208DF80F0066E002980168486940F0B2
:100F6000040048610299052081F85400FFE70298C7
:100F7000006800698004002827D4FFE700F0BAFA6F
:100F80000199401A06281FD3FFE70299886D40F0A7
:100F9000100088650299032081F85400029890F8A7
:100FA00050000006002805D5FFE70298416F012098
:100FB0000873FFE7FFE70299002081F84C00FFE784
:100FC00001208DF80F002EE0D1E7029801684869F2
:100FD00040F0020048610299042081F85400029810
:100FE00001684FF4FE40C8600299012081F8540066
:100FF000029890F850000006002809D5FFE70298F3
:10100000416F012008730298016800208864FFE79F
:10101000FFE70299002081F84C00FFE7FFE700207E
:101020008DF80F00FFE79DF80F0004B080BD0000B1
:1010300082B00090009820B9FFE701208DF80700EA
:101040001CE0009890F85400022807D0FFE70099B0
:101050002020886501208DF807000FE0009904200A
:1010600081F8540000980168486942F20402104374
:101070004861FFE700208DF80700FFE79DF80700B3
:1010800002B0704787B00690059100200190069845
:101090000090FFE7059800680199C840002800F01B
:1010A000E581FFE705980068019A01219140084019
:1010B0000390019802900398002800F0D381FFE785
:1010C00006980021C4F2026188425FD1FFE70698CA
:1010D000006804900199012000FA01F10498884306
:1010E00004900598406800F00100019900FA01F1B0
:1010F00004980843049004980699086001994CF6F6
:101100003040C0F6000050F831100091019900EB1A
:10111000C10040680290009802996FF0030202EA51
:1011200051010844006A0490029800F00700810011
:101130000F2000FA01F1049888430490029800F00F
:10114000070081000B2000FA01F104980843049085
:1011500004980099029B02EA530211440862009825
:101160000068049002984100032000FA01F10498FD
:101170008843049002984100022000FA01F104988B
:101180000843049004980099086065E00598406859
:10119000022805D0FFE705984068122841D1FFE7F3
:1011A000069801996FF0030202EA51010844006AAF
:1011B0000490019800F0070081000F2000FA01F16F
:1011C0000498884304900598006900F00F00019985
:1011D00001F00701890000FA01F104980843049026
:1011E00004980699019B02EA530211440862009890
:1011F0000068049002984100032000FA01F104986D
:10120000884304900598406800F003000299490063
:1012100000FA01F1049808430490049800990860CA
:1012200019E000980068049002984100032000FA39
:1012300001F10498884304900598406800F0030089
:101240000299490000FA01F10498084304900498B7
:1012500000990860FFE7FFE70598406801280FD074
:10126000FFE70598406802280AD0FFE70598406824
:10127000112805D0FFE70598406812282FD1FFE715
:1012800000988068049002984100032000FA01F160
:101290000498884304900598C0680299490000FAB0
:1012A00001F104980843049004980099886000981C
:1012B000406804900299012000FA01F104988843E3
:1012C000049005984068C0F30010029900FA01F1FB
:1012D000049808430490049800994860FFE7059833
:1012E000406803280AD1FFE70598406803281DD10C
:1012F000FFE705988068012818D0FFE70098C068CC
:10130000049002984100032000FA01F104988843F8
:101310000490059880680299490000FA01F1049848
:101320000843049004980099C860FFE70598C079C5
:10133000C006002840F19580FFE7019820F00300E7
:1013400042F26002C4F2026280580490019800F0F8
:101350000300C1000F2000FA01F1049888430490B3
:1013600006984FF60041CBF6FD510840800A0199DE
:1013700001F00301C90000FA01F104980843049048
:101380000498019921F00301885042F20000C4F250
:1013900002600068049003990498884304900598BB
:1013A0008079C006002805D5FFE703990498084313
:1013B0000490FFE7049842F20001C4F20261086061
:1013C00042F20400C4F20260006804900399049899
:1013D00088430490059880798006002805D5FFE7AA
:1013E0000399049808430490FFE7049842F204012B
:1013F000C4F20261086042F28400C4F20260006834
:101400000490039904988843049005988079800794
:10141000002805D5FFE70399049808430490FFE7E7
:10142000049842F28401C4F20261086042F2800032
:10143000C4F2026000680490039904988843049001
:1014400005988079C00728B1FFE7039904980843FD
:101450000490FFE7049842F28001C4F20261086040
:10146000FFE7FFE701980130019013E607B07047EE
:1014700082B00190ADF8021001980069BDF8021029
:10148000084204D0FFE701208DF8010003E00020AE
:101490008DF80100FFE79DF8010002B070470000E1
:1014A00083B00290ADF80610029840690090009A4F
:1014B000BDF8060002EA0001904340EA01400299AB
:1014C000886103B07047000082B00190ADF802104F
:1014D0008DF801209DF8010028B1FFE7BDF802005A
:1014E0000199886104E0BDF8020001998862FFE774
:1014F00002B0704740F62C70C2F2000000687047DE
:1015000040F20041C4F20301086840F001000860A5
:101510000020704740F20C00C2F20000027840F652
:101520002C71C2F200010868104408607047000086
:1015300080B582B042F20001C4F20201086840F4B2
:1015400080700860032000F0D3F803F055F940F6EE
:101550002041C4F20261096801F00F024CF6184103
:10156000C0F60001895CC84040F20401C2F20001EB
:101570000860042004F0DAFA0F2000F011F820B11E
:10158000FFE701208DF8070005E000F073F8002068
:101590008DF80700FFE79DF8070002B080BD00004E
:1015A00080B58CB00B90002004900390FFE740F6CC
:1015B0009C40C4F20260016841F0200101600068B3
:1015C00000F0200000900098FFE705A802A903F0B2
:1015D0008DF803F0DBF8049004984DF68361C4F2B3
:1015E0001B31A0FB01014FF0FF3000EB9140039055
:1015F00040F24870C2F2000041F20041C4F2000122
:10160000016040F2E731C16003994160002101614E
:10161000816004F095FC8DF807009DF8070010BB71
:10162000FFE740F24870C2F2000004F037FE8DF888
:1016300007009DF80700A8B9FFE70B980F280CD802
:10164000FFE70B993220002200F03AF80B9840F2A5
:101650001001C2F20001086003E001208DF80700CC
:10166000FFE7FFE7FFE7322000F020F89DF80700D2
:101670000CB080BD80B582B0FFE740F69440C4F264
:101680000260016841F004010160006800F004009C
:1016900001900198FFE700F0E3F86FF001000F21DF
:1016A000002200F00DF802B080BD000080B582B0CD
:1016B0008DF807009DF9070008F004FF02B080BD17
:1016C00080B586B08DF817000491039208F012FFE0
:1016D00002909DF91700019002980499039A06F070
:1016E0005FFE0146019808F00DFF06B080BD0000C6
:1016F00080B582B00190019808F048FF02B080BD2B
:1017000086B0049040F63C00C4F20260006800F429
:101710004030029002980499884212D1FFE7049861
:10172000B0F1011F09D3FFE740F60C01C4F20261DA
:10173000086840F480200860FFE700208DF817005B
:1017400089E00498B0F1011F0DD3FFE740F60C01CA
:10175000C4F20261086820F4E0220498104340F4C7
:10176000802008600AE040F60C01C4F202610868BB
:1017700020F4E020049A10430860FFE740F20400E0
:10178000C2F20000006844F6D351C1F26201A0FB2E
:1017900001208009322200FB02F0A0FB01010120A0
:1017A00000EB91100390FFE740F60C00C4F20260DA
:1017B0000168002009040029019006D4FFE703987E
:1017C000002818BF01200190FFE70198C00720B151
:1017D000FFE7039801380390E6E7039880B3FFE73B
:1017E00040F20400C2F20000006844F6D351C1F296
:1017F0006201A0FB01208009322200FB02F0A0FB65
:101800000101012000EB91100390FFE740F63C003E
:10181000C4F202600168002009040029009006D487
:10182000FFE70398002818BF01200090FFE7009809
:10183000C00720B1FFE7039801380390E6E7FFE710
:10184000039820B9FFE703208DF8170003E000207C
:101850008DF81700FFE79DF8170006B070470000ED
:1018600040F61001C4F20261086840F08040086050
:101870007047000040F63C00C4F20260006800F4CB
:10188000403070478AB0099040F63440C4F202609C
:1018900000686FF35F20069040F62840C4F20260B3
:1018A000016801F003010891016801F470620121EF
:1018B00001EB122107910068C0F300100590059814
:1018C00040F63841C4F20261096889B2C90800FBD8
:1018D00001F000EE100AB8EE400A8DED040A0898F7
:1018E000029001282CD0FFE70298022804D0FFE7DD
:1018F0000298032867D08AE09DED070AB8EE401AE7
:101900009FEDA00A80EE010A40F63440C4F2026066
:1019100000686FF35F2001EE100AB8EE411A9DEDEA
:10192000042A9FED973A82EE032A31EE021AB7EEAF
:10193000002A31EE021A20EE010A8DED030AA9E019
:1019400040F60840C4F2026000680002002809D591
:10195000FFE740F60840C4F20260006800F0704003
:10196000019009E040F6F440C4F20260006800F41F
:10197000704000040190FFE70198010F4CF6B04061
:10198000C0F6000000EB810090ED000AB8EE400ABE
:101990009DED071AB8EE411A80EE010A9DED061A78
:1019A000B8EE411A9DED042A9FED753A82EE032AA6
:1019B00031EE021AB7EE002A31EE021A20EE010AC9
:1019C0008DED030A66E09DED070AB8EE401A9FED23
:1019D0006B0A80EE010A40F63440C4F202600068EF
:1019E0006FF35F2001EE100AB8EE411A9DED042A54
:1019F0009FED633A82EE032A31EE021AB7EE002A17
:101A000031EE021A20EE010A8DED030A42E040F6A3
:101A10000840C4F2026000680002002809D5FFE710
:101A200040F60840C4F20260006800F07040009088
:101A300009E040F6F440C4F20260006800F470402F
:101A400000040090FFE70098010F4CF6B040C0F68C
:101A5000000000EB810090ED000AB8EE400A9DED19
:101A6000071AB8EE411A80EE010A9DED061AB8EE8B
:101A7000411A9DED042A9FED423A82EE032A31EE8F
:101A8000021AB7EE002A31EE021A20EE010A8DED9D
:101A9000030AFFE740F62840C4F202600068C00372
:101AA000002819D5FFE79DED030A40F63440C4F243
:101AB0000260006880B2400A01EE100AB8EE411AD6
:101AC000B7EE002A31EE021A80EE010A0998BCEE48
:101AD000C00A80ED000A03E0099900200860FFE7D2
:101AE00040F62840C4F2026000688003002819D53F
:101AF000FFE79DED030A40F63440C4F2026000683F
:101B0000C0F3064001EE100AB8EE411AB7EE002A03
:101B100031EE021A80EE010A0998BCEEC00A80ED8F
:101B2000010A03E0099900204860FFE740F62840D9
:101B3000C4F2026000684003002819D5FFE79DED5C
:101B4000030A40F63440C4F202600068C0F3066045
:101B500001EE100AB8EE411AB7EE002A31EE021A71
:101B600080EE010A0998BCEEC00A80ED020A03E08B
:101B7000099900208860FFE70AB070470024F44A02
:101B8000000000460024744B8AB0099040F63C40A7
:101B9000C4F2026000686FF35F20069040F62C40AC
:101BA000C4F20260016801F003010891016801F4C8
:101BB0007062012101EB122107910068C0F300104F
:101BC0000590059840F64041C4F20261096889B267
:101BD000C90800FB01F000EE100AB8EE400A8DEDD6
:101BE000040A0898029001282CD0FFE702980228E6
:101BF00004D0FFE70298032867D08AE09DED070A2A
:101C0000B8EE401A9FEDA00A80EE010A40F63C4073
:101C1000C4F2026000686FF35F2001EE100AB8EEB4
:101C2000411A9DED042A9FED973A82EE032A31EE88
:101C3000021AB7EE002A31EE021A20EE010A8DEDEB
:101C4000030AA9E040F60840C4F2026000680002FE
:101C5000002809D5FFE740F60840C4F2026000689A
:101C600000F07040019009E040F6F440C4F20260D8
:101C7000006800F4704000040190FFE70198010F34
:101C80004CF6B040C0F6000000EB810090ED000A79
:101C9000B8EE400A9DED071AB8EE411A80EE010A2F
:101CA0009DED061AB8EE411A9DED042A9FED753A96
:101CB00082EE032A31EE021AB7EE002A31EE021A42
:101CC00020EE010A8DED030A66E09DED070AB8EEED
:101CD000401A9FED6B0A80EE010A40F63C40C4F2C8
:101CE000026000686FF35F2001EE100AB8EE411A3F
:101CF0009DED042A9FED633A82EE032A31EE021A2B
:101D0000B7EE002A31EE021A20EE010A8DED030A29
:101D100042E040F60840C4F2026000680002002879
:101D200009D5FFE740F60840C4F20260006800F001
:101D30007040009009E040F6F440C4F20260006890
:101D400000F4704000040090FFE70098010F4CF68B
:101D5000B040C0F6000000EB810090ED000AB8EE44
:101D6000400A9DED071AB8EE411A80EE010A9DED7A
:101D7000061AB8EE411A9DED042A9FED423A82EE12
:101D8000032A31EE021AB7EE002A31EE021A20EED3
:101D9000010A8DED030AFFE740F62C40C4F2026011
:101DA0000068C003002819D5FFE79DED030A40F63F
:101DB0003C40C4F20260006880B2400A01EE100AA2
:101DC000B8EE411AB7EE002A31EE021A80EE010A8F
:101DD0000998BCEEC00A80ED000A03E009990020D2
:101DE0000860FFE740F62C40C4F202600068800300
:101DF000002819D5FFE79DED030A40F63C40C4F2E8
:101E000002600068C0F3064001EE100AB8EE411A05
:101E1000B7EE002A31EE021A80EE010A0998BCEEF4
:101E2000C00A80ED010A03E0099900204860FFE73D
:101E300040F62C40C4F2026000684003002819D527
:101E4000FFE79DED030A40F63C40C4F202600068E3
:101E5000C0F3066001EE100AB8EE411AB7EE002A90
:101E600031EE021A80EE010A0998BCEEC00A80ED3C
:101E7000020A03E0099900208860FFE70AB0704772
:101E80000024F44A000000460024744B8AB00990F4
:101E900040F64440C4F2026000686FF35F20069091
:101EA00040F63040C4F20260016801F0030108917D
:101EB000016801F47062012101EB122107910068B1
:101EC000C0F300100590059840F64841C4F2026145
:101ED000096889B2C90800FB01F000EE100AB8EEEB
:101EE000400A8DED040A0898029001282CD0FFE7E3
:101EF0000298022804D0FFE70298032867D08AE0FE
:101F00009DED070AB8EE401A9FEDA00A80EE010A87
:101F100040F64440C4F2026000686FF35F2001EEB7
:101F2000100AB8EE411A9DED042A9FED973A82EE11
:101F3000032A31EE021AB7EE002A31EE021A20EE21
:101F4000010A8DED030AA9E040F60840C4F20260E0
:101F500000680002002809D5FFE740F60840C4F2F7
:101F60000260006800F07040019009E040F6F44023
:101F7000C4F20260006800F4704000040190FFE7C2
:101F80000198010F4CF6B040C0F6000000EB810054
:101F900090ED000AB8EE400A9DED071AB8EE411A1E
:101FA00080EE010A9DED061AB8EE411A9DED042A55
:101FB0009FED753A82EE032A31EE021AB7EE002A3F
:101FC00031EE021A20EE010A8DED030A66E09DED66
:101FD000070AB8EE401A9FED6B0A80EE010A40F640
:101FE0004440C4F2026000686FF35F2001EE100A03
:101FF000B8EE411A9DED042A9FED633A82EE032A62
:1020000031EE021AB7EE002A31EE021A20EE010A72
:102010008DED030A42E040F60840C4F20260006819
:102020000002002809D5FFE740F60840C4F202602C
:10203000006800F07040009009E040F6F440C4F2FF
:102040000260006800F4704000040090FFE7009810
:10205000010F4CF6B040C0F6000000EB810090ED9F
:10206000000AB8EE400A9DED071AB8EE411A80EE5C
:10207000010A9DED061AB8EE411A9DED042A9FED66
:10208000423A82EE032A31EE021AB7EE002A31EE0E
:10209000021A20EE010A8DED030AFFE740F63040F8
:1020A000C4F202600068C003002819D5FFE79DED67
:1020B000030A40F64440C4F20260006880B2400A5D
:1020C00001EE100AB8EE411AB7EE002A31EE021AFC
:1020D00080EE010A0998BCEEC00A80ED000A03E018
:1020E000099900200860FFE740F63040C4F2026022
:1020F00000688003002819D5FFE79DED030A40F62C
:102100004440C4F202600068C0F3064001EE100AC9
:10211000B8EE411AB7EE002A31EE021A80EE010A3B
:102120000998BCEEC00A80ED010A03E0099900207D
:102130004860FFE740F63040C4F2026000684003A8
:10214000002819D5FFE79DED030A40F64440C4F28C
:1021500002600068C0F3066001EE100AB8EE411A92
:10216000B7EE002A31EE021A80EE010A0998BCEEA1
:10217000C00A80ED020A03E0099900208860FFE7A9
:102180000AB070470024F44A000000460024744B53
:1021900080B5A8B0279126902698279980F48020B2
:1021A0000843002850D1FFE740F6F040C4F2026037
:1021B000016801F440711B9100688007002809D56F
:1021C000FFE71B98B0F5807F04D1FFE74FF4004094
:1021D0001C9037E040F6F040C4F202600068000155
:1021E000002816D5FFE71B98B0F5007F11D1FFE757
:1021F00040F6F040C4F202600068C000002803D539
:10220000FFE7FA201C9003E04FF4FA401C90FFE730
:1022100017E040F60040C4F2026000688003002826
:102220000BD5FFE71B98B0F5407F06D1FFE74DF2D5
:102230009000C0F203001C9002E000201C90FFE719
:10224000FFE7FFE701F028BB2698279980F40050AC
:10225000084300284AD1FFE740F6E440C4F2026098
:10226000006800F0E0001B901B981A90B0B1FFE7E7
:102270001A98202818D0FFE71A98402808D0FFE7BE
:102280001A98602816D0FFE71A98802816D028E000
:1022900023A8FFF7F7FA23981C9025E020A8FFF762
:1022A00073FC20981C901FE01DA8FFF7EFFD1D9800
:1022B0001C9019E04BF680301C9015E040F6004071
:1022C000C4F2026000684005002806D5FFE742F22C
:1022D0000040C0F2F4001C9002E000201C90FFE7D8
:1022E00002E000201C90FFE701F0D5BA269827995C
:1022F00080F48040084300284ED1FFE740F6E440D8
:10230000C4F20260006800F4E0601B901B98199012
:10231000D0B1FFE71998B0F5807F1BD0FFE719987F
:10232000B0F5007F0AD0FFE71998B0F5407F17D0CD
:10233000FFE71998B0F5806F16D028E023A8FFF7C3
:10234000A1FA23981C9025E020A8FFF71DFC2098F7
:102350001C901FE01DA8FFF799FD1D981C9019E027
:102360004BF680301C9015E040F60040C4F202604D
:1023700000684005002806D5FFE742F20040C0F2A1
:10238000F4001C9002E000201C90FFE702E0002017
:102390001C90FFE701F07EBA2698279980F4801000
:1023A0000843002872D1FFE740F6E040C4F2026023
:1023B000006800F040601B901B981890D8B1FFE7B0
:1023C0001898B0F1806F10D0FFE71898B0F1006F47
:1023D00005D0FFE71898B0F1406F1FD051E023A857
:1023E000FFF750FA24981C904EE020A8FFF7CCFB92
:1023F00021981C9048E040F60040C4F2026000685A
:102400008004002806D5FFE746F60040C0F2DC2035
:102410001C9002E000201C90FFE735E040F60040F1
:10242000C4F2026000688006002826D5FFE740F667
:102430000840C4F2026000680002002809D5FFE7E6
:1024400040F60840C4F20260006800F07060179027
:1024500009E040F6F440C4F20260006800F47060E5
:1024600000041790FFE71798010E4CF6B040C0F635
:10247000000050F821001C9002E000201C90FFE7B3
:1024800002E000201C90FFE701F003BA269827998C
:1024900080F400100843002840F08F80FFE740F6EA
:1024A000E440C4F20260006800F480401B901B9876
:1024B000002871D1FFE740F6E040C4F202600068F6
:1024C00000F040601B901B981690D8B1FFE716985B
:1024D000B0F1806F10D0FFE71698B0F1006F05D013
:1024E000FFE71698B0F1406F1FD051E023A8FFF727
:1024F000C9F924981C904EE020A8FFF745FB2198CD
:102500001C9048E040F60040C4F20260006880047D
:10251000002806D5FFE746F60040C0F2DC201C90FC
:1025200002E000201C90FFE735E040F60040C4F2D6
:10253000026000688006002826D5FFE740F60840C4
:10254000C4F2026000680002002809D5FFE740F6E7
:102550000840C4F20260006800F07060159009E065
:1025600040F6F440C4F20260006800F470600004B9
:102570001590FFE71598010E4CF6B040C0F600002C
:1025800050F821001C9002E000201C90FFE702E0C0
:1025900000201C90FFE70EE01B98B0F5804F06D19D
:1025A000FFE723A8FFF76EF923981C9002E00020B4
:1025B0001C90FFE7FFE701F06BB92698279980F0A0
:1025C00001000843002843D1FFE740F6E040C4F291
:1025D0000260006800F003001B901B9820B9FFE721
:1025E00002F0E6F81C9031E01B98012804D1FFE7C7
:1025F00002F002F91C9028E040F60040C4F20260AC
:102600000068400500280AD5FFE71B98022806D17C
:10261000FFE742F20040C0F2F4001C9014E040F6E4
:10262000F040C4F2026000688007002808D5FFE788
:102630001B98032804D1FFE74FF400401C9002E0F0
:1026400000201C90FFE7FFE7FFE7FFE701F01FB95D
:102650002698279980F002000843002843D1FFE71D
:1026600040F6E040C4F20260006800F00C001B90ED
:102670001B9820B9FFE702F089F81C9031E01B9805
:10268000042804D1FFE702F0B7F81C9028E040F6D8
:102690000040C4F202600068400500280AD5FFE748
:1026A0001B98082806D1FFE742F20040C0F2F40070
:1026B0001C9014E040F6F040C4F20260006880070D
:1026C000002808D5FFE71B980C2804D1FFE74FF43A
:1026D00000401C9002E000201C90FFE7FFE7FFE7AE
:1026E000FFE701F0D3B82698279980F0040008434B
:1026F000002843D1FFE740F6E040C4F202600068E2
:1027000000F030001B901B9820B9FFE702F03EF864
:102710001C9031E01B98102804D1FFE702F06CF800
:102720001C9028E040F60040C4F2026000684005BA
:1027300000280AD5FFE71B98202806D1FFE742F2C0
:102740000040C0F2F4001C9014E040F6F040C4F2E7
:10275000026000688007002808D5FFE71B98302832
:1027600004D1FFE74FF400401C9002E000201C90D1
:10277000FFE7FFE7FFE7FFE701F087B82698279913
:1027800080F008000843002843D1FFE740F6E0400E
:10279000C4F20260006800F0C0001B901B9820B9D2
:1027A000FFE701F0F3FF1C9031E01B98402804D1B3
:1027B000FFE702F021F81C9028E040F60040C4F248
:1027C00002600068400500280AD5FFE71B988028B2
:1027D00006D1FFE742F20040C0F2F4001C9014E082
:1027E00040F6F040C4F2026000688007002808D577
:1027F000FFE71B98C02804D1FFE74FF400401C906E
:1028000002E000201C90FFE7FFE7FFE7FFE701F091
:102810003BB82698279980F010000843002846D13D
:10282000FFE740F6E040C4F20260006800F4407048
:102830001B901B9820B9FFE701F0A8FF1C9034E023
:102840001B98B0F5807F04D1FFE701F0D5FF1C9005
:102850002AE040F60040C4F202600068400500280B
:102860000BD5FFE71B98B0F5007F06D1FFE742F2DA
:102870000040C0F2F4001C9015E040F6F040C4F2B5
:10288000026000688007002809D5FFE71B98B0F5B3
:10289000407F04D1FFE74FF400401C9002E000208D
:1028A0001C90FFE7FFE7FFE7FFE700F0ECBF26988B
:1028B000279980F020000843002877D1FFE740F6F1
:1028C000E840C4F20260006800F007001B901B980B
:1028D00020B9FFE701F07EFF1C9065E01B980128FE
:1028E00004D1FFE701F088FF1C905CE040F6004057
:1028F000C4F202600068400500280AD5FFE71B9873
:10290000022806D1FFE742F20040C0F2F4001C901A
:1029100048E040F6F040C4F20260006880070028FA
:1029200008D5FFE71B98032804D1FFE74FF40040C8
:102930001C9036E040F60040C4F202600068800659
:1029400000282AD5FFE71B98042826D1FFE740F688
:102950000840C4F2026000680002002809D5FFE7C1
:1029600040F60840C4F20260006800F07060149005
:1029700009E040F6F440C4F20260006800F47060C0
:1029800000041490FFE71498010E4CF6B040C0F616
:10299000000050F821001C9002E000201C90FFE78E
:1029A000FFE7FFE7FFE7FFE700F06CBF26982799F6
:1029B00080F400400843002840F08E80FFE740F696
:1029C000E840C4F20260006800F4E0401B901B98ED
:1029D000B0F5805F04D1FFE701F00EFF1C9079E0B5
:1029E0001B98B0F5005F06D1FFE720A8FFF7CCF8F1
:1029F00022981C906DE01B9820B9FFE701F0AEFE15
:102A00001C9065E01B98B0F5A04F33D1FFE740F66E
:102A10000040C4F2026000688006002826D5FFE767
:102A200040F60840C4F2026000680002002809D5A0
:102A3000FFE740F60840C4F20260006800F07060F2
:102A4000139009E040F6F440C4F20260006800F41C
:102A5000706000041390FFE71398010E4CF6B0402D
:102A6000C0F6000050F821001C9002E000201C90ED
:102A7000FFE72CE040F60040C4F2026000688003EB
:102A800000280BD5FFE71B98B0F5405F06D1FFE7A4
:102A900041F20020C0F27A001C9017E040F600409E
:102AA000C4F202600068400500280BD5FFE71B98C0
:102AB000B0F5804F06D1FFE742F20040C0F2F400CB
:102AC0001C9002E000201C90FFE7FFE7FFE7FFE714
:102AD000FFE7FFE700F0D5BE2698279980F4803005
:102AE000084300285ED1FFE740F6E440C4F20260EC
:102AF000006800F007001B901B98129004284CD827
:102B00001299DFE801F00F030913170023A8FEF75D
:102B1000B9FE23981C9043E01DA8FFF7B7F91E9853
:102B20001C903DE001F01AFE1C9039E04BF680301D
:102B30001C9035E040F60040C4F202600068800658
:102B4000002826D5FFE740F60840C4F2026000687E
:102B50000002002809D5FFE740F60840C4F20260F1
:102B6000006800F07060119009E040F6F440C4F293
:102B70000260006800F4706000041190FFE7119893
:102B8000010E4CF6B040C0F6000050F821001C9039
:102B900002E000201C90FFE702E000201C90FFE70D
:102BA00000F06EBE2698279980F400300843002874
:102BB0006CD1FFE740F6E840C4F20260006800F420
:102BC000E0201B901B98109000B3FFE71098B0F521
:102BD000803F0FD0FFE71098B0F5003F10D0FFE71F
:102BE0001098B0F5403F15D0FFE71098B0F5802F52
:102BF00014D046E023A8FEF745FE23981C9043E03E
:102C00001DA8FFF743F91E981C903DE001F0A6FDBA
:102C10001C9039E04BF680301C9035E040F60040C7
:102C2000C4F2026000688006002826D5FFE740F65F
:102C30000840C4F2026000680002002809D5FFE7DE
:102C400040F60840C4F20260006800F070600F9027
:102C500009E040F6F440C4F20260006800F47060DD
:102C600000040F90FFE70F98010E4CF6B040C0F63D
:102C7000000050F821001C9002E000201C90FFE7AB
:102C800002E000201C90FFE700F0F9BD269827998C
:102C900080F040000843002868D1FFE740F6E0409C
:102CA000C4F20260006800F440601B901B9820B9D9
:102CB000FFE701F06BFD1C9056E01B98B0F5806FAC
:102CC00004D1FFE701F098FD1C904CE040F6004075
:102CD000C4F202600068400500280BD5FFE71B988E
:102CE000B0F5006F06D1FFE742F20040C0F2F400F9
:102CF0001C9037E040F60040C4F202600068800695
:102D000000282BD5FFE71B98B0F5406F26D1FFE7D1
:102D100040F60840C4F2026000680002002809D5AD
:102D2000FFE740F60840C4F20260006800F07060FF
:102D30000E9009E040F6F440C4F20260006800F42E
:102D4000706000040E90FFE70E98010E4CF6B04044
:102D5000C0F6000050F821001C9002E000201C90FA
:102D6000FFE7FFE7FFE7FFE700F088BD2698279918
:102D700080F080000843002868D1FFE740F6E0407B
:102D8000C4F20260006800F440501B901B9820B908
:102D9000FFE701F0FBFC1C9056E01B98B0F5805F4C
:102DA00004D1FFE701F028FD1C904CE040F6004004
:102DB000C4F202600068400500280BD5FFE71B98AD
:102DC000B0F5005F06D1FFE742F20040C0F2F40028
:102DD0001C9037E040F60040C4F2026000688006B4
:102DE00000282BD5FFE71B98B0F5405F26D1FFE701
:102DF00040F60840C4F2026000680002002809D5CD
:102E0000FFE740F60840C4F20260006800F070601E
:102E10000D9009E040F6F440C4F20260006800F44E
:102E2000706000040D90FFE70D98010E4CF6B04065
:102E3000C0F6000050F821001C9002E000201C9019
:102E4000FFE7FFE7FFE7FFE700F017BD26982799A8
:102E500080F48070084300286BD1FFE740F6E8401B
:102E6000C4F20260006800F0C0001B901B980C9038
:102E700060B1FFE70C9840281FD0FFE70C9880282E
:102E800008D0FFE70C98C0281BD04DE001F0A2FC51
:102E90001C904CE040F60040C4F20260006840051F
:102EA000002806D5FFE742F20040C0F2F4001C9073
:102EB00002E000201C90FFE739E001F09DFC1C902F
:102EC00035E040F60040C4F2026000688006002849
:102ED00026D5FFE740F60840C4F202600068000211
:102EE000002809D5FFE740F60840C4F202600068F8
:102EF00000F070600B9009E040F6F440C4F202600C
:102F0000006800F4706000040B90FFE70B98010E5E
:102F10004CF6B040C0F6000050F821001C9002E0D2
:102F200000201C90FFE702E000201C90FFE700F06B
:102F3000A3BC2698279980F480000843002868D114
:102F4000FFE740F6E040C4F20260006800F4404051
:102F50001B901B9820B9FFE701F018FC1C9056E06D
:102F60001B98B0F5804F04D1FFE701F045FC1C90A1
:102F70004CE040F60040C4F20260006840050028C2
:102F80000BD5FFE71B98B0F5004F06D1FFE742F2E3
:102F90000040C0F2F4001C9037E040F60040C4F25C
:102FA00002600068800600282BD5FFE71B98B0F56B
:102FB000404F26D1FFE740F60840C4F202600068A7
:102FC0000002002809D5FFE740F60840C4F202607D
:102FD000006800F070600A9009E040F6F440C4F226
:102FE0000260006800F4706000040A90FFE70A982D
:102FF000010E4CF6B040C0F6000050F821001C90C5
:1030000002E000201C90FFE7FFE7FFE7FFE700F08A
:1030100032BC2698279980F400600843002840F0CD
:103020008B80FFE740F6E840C4F20260006800F4DD
:1030300040701B901B9898BBFFE740F60040C4F21D
:10304000026000688006002826D5FFE740F60840A9
:10305000C4F2026000680002002809D5FFE740F6CC
:103060000840C4F20260006800F07060099009E056
:1030700040F6F440C4F20260006800F4706000049E
:103080000990FFE70998010E4CF6B040C0F6000029
:1030900050F821001C9002E000201C90FFE74AE05D
:1030A00040F6F040C4F2026000680001002816D526
:1030B000FFE71B98B0F5807F11D1FFE740F6F040A5
:1030C000C4F202600068C000002803D5FFE7FA20C0
:1030D0001C9003E04FF4FA401C90FFE72AE040F612
:1030E0000040C4F202600068400500280BD5FFE7ED
:1030F0001B98B0F5007F06D1FFE742F20040C0F216
:10310000F4001C9015E040F6F040C4F20260006844
:103110008007002809D5FFE71B98B0F5407F04D150
:10312000FFE74FF400401C9002E000201C90FFE7F6
:10313000FFE7FFE7FFE79DE32698279980F40070FB
:103140000843002840F08B80FFE740F6E840C4F2D7
:103150000260006800F440601B901B9898BBFFE77A
:1031600040F60040C4F2026000688006002826D5C0
:10317000FFE740F60840C4F2026000680002002841
:1031800009D5FFE740F60840C4F20260006800F08D
:103190007060089009E040F6F440C4F202600068F4
:1031A00000F4706000040890FFE70898010E4CF6E8
:1031B000B040C0F6000050F821001C9002E0002052
:1031C0001C90FFE74AE040F6F040C4F2026000685D
:1031D0000001002816D5FFE71B98B0F5806F11D1CC
:1031E000FFE740F6F040C4F202600068C00000282B
:1031F00003D5FFE7FA201C9003E04FF4FA401C903F
:10320000FFE72AE040F60040C4F202600068400593
:1032100000280BD5FFE71B98B0F5006F06D1FFE73C
:1032200042F20040C0F2F4001C9015E040F6F0407D
:10323000C4F2026000688007002809D5FFE71B98E8
:10324000B0F5406F04D1FFE74FF400401C9002E05E
:1032500000201C90FFE7FFE7FFE7FFE709E3269860
:10326000279980F48060084300285BD1FFE740F68F
:10327000E040C4F20260006800F440201B901B98FC
:1032800020B9FFE701F082FA1C904AE040F6F040D6
:10329000C4F2026000680001002816D5FFE71B9801
:1032A000B0F5802F11D1FFE740F6F040C4F2026084
:1032B0000068C000002803D5FFE7FA201C9003E057
:1032C0004FF4FA401C90FFE72AE040F60040C4F2B9
:1032D00002600068400500280BD5FFE71B98B0F599
:1032E000002F06D1FFE742F20040C0F2F4001C902C
:1032F00015E040F6F040C4F2026000688007002844
:1033000009D5FFE71B98B0F5402F04D1FFE74FF434
:1033100000401C9002E000201C90FFE7FFE7FFE761
:10332000FFE7A5E22698279980F000600843B0BB2C
:10333000FFE740F6E040C4F20260006800F0407031
:103340001B9040F60040C4F2026000688003002831
:1033500009D5FFE71B9830B9FFE741F20020C0F222
:103360007A001C901AE01B98B0F1807F06D1FFE72D
:1033700023A8FEF787FA24981C900EE01B98B0F162
:10338000007F06D1FFE720A8FEF7FEFB20981C90E7
:1033900002E000201C90FFE7FFE7FFE767E22698C6
:1033A000279980F40000084300286DD1FFE740F61C
:1033B000E040C4F20260006800F440101B901B98CB
:1033C000079078B1FFE70798B0F5801F0ED0FFE7B0
:1033D0000798B0F5001F0DD0FFE70798B0F5401F24
:1033E0001BD04DE001F0E4F91C904CE001F004FA30
:1033F0001C9048E040F60040C4F2026000684005BE
:10340000002806D5FFE742F20040C0F2F4001C900D
:1034100002E000201C90FFE735E040F60040C4F2D7
:10342000026000688006002826D5FFE740F60840C5
:10343000C4F2026000680002002809D5FFE740F6E8
:103440000840C4F20260006800F07060069009E075
:1034500040F6F440C4F20260006800F470600004BA
:103460000690FFE70698010E4CF6B040C0F600004B
:1034700050F821001C9002E000201C90FFE702E0C1
:1034800000201C90FFE7F1E12698279980F08070DA
:10349000084300286DD1FFE740F6E040C4F2026027
:1034A000006800F440301B901B98059078B1FFE74E
:1034B0000598B0F5803F0ED0FFE70598B0F5003FC6
:1034C0000DD0FFE70598B0F5403F1BD04DE001F06F
:1034D0005DF91C904CE001F08FF91C9048E040F63B
:1034E0000040C4F2026000684005002806D5FFE7EE
:1034F00042F20040C0F2F4001C9002E000201C9058
:10350000FFE735E040F60040C4F202600068800644
:10351000002826D5FFE740F60840C4F202600068A4
:103520000002002809D5FFE740F60840C4F2026017
:10353000006800F07060049009E040F6F440C4F2C6
:103540000260006800F4706000040490FFE70498D3
:10355000010E4CF6B040C0F6000050F821001C905F
:1035600002E000201C90FFE702E000201C90FFE733
:103570007BE12698279980F000700843002840F0EE
:103580007080FFE740F6E840C4F20260006800F097
:1035900018001B901B980390182800F25E80039976
:1035A000DFE801F00D5B5B5B5B5B5B5B115B5B5BB7
:1035B0005B5B5B5B155B5B5B5B5B5B5B280001F0F4
:1035C00009F91C904CE001F017F91C9048E040F616
:1035D0000040C4F2026000684005002806D5FFE7FD
:1035E00042F20040C0F2F4001C9002E000201C9067
:1035F000FFE735E040F60040C4F202600068800654
:10360000002826D5FFE740F60840C4F202600068B3
:103610000002002809D5FFE740F60840C4F2026026
:10362000006800F07060029009E040F6F440C4F2D7
:103630000260006800F4706000040290FFE70298E6
:10364000010E4CF6B040C0F6000050F821001C906E
:1036500002E000201C90FFE702E000201C90FFE742
:1036600002E12698279980F080600843002862D103
:10367000FFE740F6E440C4F20260006800F4401046
:103680001B901B980190D8B1FFE70198B0F5801FFF
:103690001AD0FFE70198B0F5001F0BD0FFE70198A3
:1036A000B0F5401F43D1FFE720A8FEF76DFA21983F
:1036B0001C903FE023A8FEF7E5F824981C9039E021
:1036C00001F09AF81C9035E040F60040C4F2026028
:1036D00000688006002826D5FFE740F60840C4F2BF
:1036E000026000680002002809D5FFE740F60840A4
:1036F000C4F20260006800F07060009009E040F6DB
:10370000F440C4F20260006800F4706000040090AD
:10371000FFE70098010E4CF6B040C0F6000050F8EC
:1037200021001C9002E000201C90FFE702E0002036
:103730001C90FFE797E02698279980F08050084377
:10374000E0BBFFE740F6E840C4F20260006800F426
:1037500000401B9040F6F040C4F202600068800711
:10376000002807D5FFE71B9820B9FFE74FF400407A
:103770001C9022E040F6F040C4F2026000680001B4
:10378000002816D5FFE71B98B0F5004F11D1FFE7D1
:1037900040F6F040C4F202600068C000002803D583
:1037A000FFE7FA201C9003E04FF4FA401C90FFE77B
:1037B00002E000201C90FFE7FFE753E026982799DE
:1037C00080F400200843002848D1FFE740F6E44099
:1037D000C4F20260006800F440501B9040F60040C4
:1037E000C4F2026000688004002809D5FFE71B9836
:1037F00030B9FFE746F60040C0F2DC201C902CE018
:1038000040F60040C4F202600068800400280BD536
:10381000FFE71B98B0F5805F06D1FFE743F2006039
:10382000C0F26E101C9017E040F60040C4F2026037
:103830000068400500280BD5FFE71B98B0F5005F36
:1038400006D1FFE742F20040C0F2F4001C9002E013
:1038500000201C90FFE7FFE7FFE702E000201C903C
:10386000FFE7FFE7FFE7FFE7FFE7FFE7FFE7FFE728
:10387000FFE7FFE7FFE7FFE7FFE7FFE7FFE7FFE718
:10388000FFE7FFE7FFE7FFE7FFE7FFE7FFE7FFE708
:10389000FFE7FFE7FFE7FFE71C9828B080BD0000C7
:1038A00080B58EB00D9000208DF82B008DF82A0089
:1038B0000D980068C00760B1FFE740F6E041C4F230
:1038C0000261086820F003000D9A126D1043086031
:1038D000FFE70D980078800700280CD5FFE740F639
:1038E000E041C4F20261086820F00C000D9A526DAC
:1038F00010430860FFE70D980078400700280CD5BA
:10390000FFE740F6E041C4F20261086820F03000B1
:103910000D9A926D10430860FFE70D98007800073C
:1039200000280CD5FFE740F6E041C4F202610868C8
:1039300020F0C0000D9AD26D10430860FFE70D988B
:103940000078C00600280CD5FFE740F6E041C4F23D
:103950000261086820F440700D9A126E10430860EE
:10396000FFE70D980078800600280CD5FFE740F6A9
:10397000E841C4F20261086820F007000D9A526E17
:1039800010430860FFE70D980078400600280CD52A
:10399000FFE740F6E041C4F20261086820F44060AD
:1039A0000D9A926E10430860FFE70D9800780006AC
:1039B00000280CD5FFE740F6E041C4F20261086838
:1039C00020F440500D9AD26E10430860FFE70D9826
:1039D0004078C00760B1FFE740F6E841C4F20261F9
:1039E000086820F0C0000D9A126F10430860FFE7CE
:1039F0000D988078400600280CD5FFE740F6E0419E
:103A0000C4F20261086820F440400D9A526F1043DE
:103A10000860FFE70D984078800700280CD5FFE785
:103A200040F6E841C4F20261086820F440600D9A53
:103A3000926F10430860FFE70D9840784007002818
:103A40000CD5FFE740F6E041C4F20261086820F4BB
:103A500040200D9AD26F10430860FFE70D98407820
:103A6000000700280DD5FFE740F6E841C4F20261E7
:103A7000086820F440700D9AD2F880201043086046
:103A8000FFE70D984078800600284AD5FFE70D989B
:103A9000D0F890000890C8B1FFE7089820281CD003
:103AA000FFE70898402808D0FFE7089860281BD057
:103AB000FFE70898802818D018E040F62841C4F2A3
:103AC0000261086840F48030086013E00D98083007
:103AD00004F0C8FC8DF82B000CE00D982C3004F09D
:103AE0007BFD8DF82B0005E004E003E001208DF85C
:103AF0002B00FFE79DF82B0068B9FFE740F6E44193
:103B0000C4F20261086820F0E0000D9AD2F890201B
:103B10001043086004E09DF82B008DF82A00FFE7B1
:103B2000FFE70D984078400600284ED5FFE70D9836
:103B3000D0F894000790E8B1FFE70798B0F5807FD0
:103B40001FD0FFE70798B0F5007F0AD0FFE707987E
:103B5000B0F5407F1CD0FFE70798B0F5806F18D014
:103B600018E040F62841C4F20261086840F4803051
:103B7000086013E00D98083004F074FC8DF82B00F9
:103B80000CE00D982C3004F027FD8DF82B0005E09B
:103B900004E003E001208DF82B00FFE79DF82B00E7
:103BA00068B9FFE740F6E441C4F20261086820F416
:103BB000E0600D9AD2F894201043086004E09DF86C
:103BC0002B008DF82A00FFE7FFE70D9840780006EC
:103BD000002842D5FFE70D98D0F8A400069000B366
:103BE000FFE70698B0F5805F1BD0FFE70698B0F5B9
:103BF000005F0FD0FFE70698B0F5405F11D0FFE7F8
:103C00000698B0F5804F0CD0FFE70698B0F5A04FAE
:103C100007D007E00D98083004F024FC8DF82B0045
:103C200004E003E001208DF82B00FFE79DF82B0056
:103C300068B9FFE740F6E841C4F20261086820F481
:103C4000E0400D9AD2F8A4201043086004E09DF8EB
:103C50002B008DF82A00FFE7FFE70D988078C0075A
:103C600000283AD0FFE70D98D0F888000590042886
:103C700018D80599DFE801F013030C14150040F67D
:103C80002841C4F20261086840F4803008600DE009
:103C90000D982C3004F0A0FC8DF82B0006E005E018
:103CA00004E003E001208DF82B00FFE79DF82B00D6
:103CB00068B9FFE740F6E441C4F20261086820F009
:103CC00007000D9AD2F888201043086004E09DF8A0
:103CD0002B008DF82A00FFE7FFE70D98807880071A
:103CE000002848D5FFE70D98D0F88C00049020B349
:103CF000FFE70498B0F5803F0FD0FFE70498B0F5D8
:103D0000003F13D0FFE70498B0F5403F16D0FFE71F
:103D10000498B0F5802F12D012E040F62841C4F28A
:103D20000261086840F4803008600DE00D982C3086
:103D300004F052FC8DF82B0006E005E004E003E0FF
:103D400001208DF82B00FFE79DF82B0068B9FFE7F5
:103D500040F6E841C4F20261086820F4E0200D9AC0
:103D6000D2F88C201043086004E09DF82B008DF8F9
:103D70002A00FFE7FFE70D9880784007002840F110
:103D8000B680FFE700208DF8290040F69440C4F289
:103D9000026000684007002813D4FFE7FFE740F601
:103DA0009440C4F20260016841F0040101600068BF
:103DB00000F0040009900998FFE701208DF8290020
:103DC000FFE740F62801C4F20261086840F00100F4
:103DD0000860FDF78FFB0B90FFE740F62800C4F268
:103DE00002600068C00760B9FFE7FDF783FB0B992D
:103DF000401A032804D3FFE703208DF82B0000E0CE
:103E0000EBE79DF82B0000285DD1FFE740F6F0407E
:103E1000C4F20260006800F440700C900C98D0B1BD
:103E2000FFE70C980D99D1F8BC10884213D0FFE73A
:103E300040F6F041C4F20261086820F440700C9032
:103E4000086840F480300860086820F4803008601A
:103E50000C980860FFE79DF83000C007E0B1FFE76D
:103E6000FDF748FB0B90FFE740F6F040C4F202601C
:103E70000068800700280ED4FFE7FDF73BFB0B9995
:103E8000401A41F28931884204D3FFE703208DF8BC
:103E90002B0000E0E8E7FFE79DF82B0068B9FFE79B
:103EA00040F6F041C4F20261086820F440700D9AB7
:103EB000D2F8BC201043086004E09DF82B008DF878
:103EC0002A00FFE704E09DF82B008DF82A00FFE7A9
:103ED0009DF82900012809D1FFE740F69441C4F27A
:103EE0000261086820F004000860FFE7FFE70D9812
:103EF0008078C006002842D5FFE70D98D0F89C00D6
:103F00000390F8B1FFE70398B0F1806F0AD0FFE7A4
:103F10000398B0F1006F0CD0FFE70398B0F1406F49
:103F200011D011E00D98083004F09CFA8DF82B00A8
:103F30000EE040F62841C4F20261086840F4003007
:103F4000086005E004E003E001208DF82B00FFE7A6
:103F50009DF82B0068B9FFE740F6E041C4F202612A
:103F6000086820F040600D9AD2F89C201043086049
:103F700004E09DF82B008DF82A00FFE7FFE70D987D
:103F80008078000700282ED5FFE70D98D0F898001C
:103F9000029060B1FFE70298B0F5805F05D0FFE7BF
:103FA0000298B0F5005F01D002E005E004E003E014
:103FB00001208DF82B00FFE79DF82B0068B9FFE783
:103FC00040F6E441C4F20261086820F440500D9AC2
:103FD000D2F898201043086004E09DF82B008DF87B
:103FE0002A00FFE7FFE70D988078800600281DD59E
:103FF000FFE70D98D0F8A000B0F5804F09D1FFE79A
:1040000040F62841C4F20261086840F4803008603C
:10401000FFE740F6E441C4F20261086820F4804002
:104020000D9AD2F8A02010430860FFE70D98807821
:10403000000600280DD5FFE740F6E041C4F202611A
:10404000086820F440100D9AD2F8B02010430860A0
:10405000FFE70D98C078C00768B1FFE740F6E04180
:10406000C4F20261086820F440300D9AD2F8B420FE
:1040700010430860FFE70D98C078800700280DD531
:10408000FFE740F6E841C4F20261086820F018003A
:104090000D9AD2F8B82010430860FFE70D98C07859
:1040A0004007002835D5FFE70D98D0F8AC00B0F5F3
:1040B000001F09D1FFE740F62841C4F202610868F9
:1040C00040F400300860FFE70D98D0F8AC00B0F580
:1040D000401F07D1FFE70D98083004F0C3F98DF8B1
:1040E0002B00FFE79DF82B0068B9FFE740F6E4419D
:1040F000C4F20261086820F440100D9AD2F8AC2096
:104100001043086004E09DF82B008DF82A00FFE7BB
:10411000FFE70D98C078000700283CD5FFE70D9811
:10412000D0F88400019050B1FFE70198B0F1807F92
:1041300006D0FFE70198B0F1007F0AD010E013E04D
:1041400040F62841C4F20261086840F4003008607B
:104150000AE00D98083004F085F98DF82B0003E093
:1041600001208DF82B00FFE79DF82B0068B9FFE7D1
:1041700040F6E041C4F20261086820F040700D9AF8
:10418000D2F884201043086004E09DF82B008DF8DD
:104190002A00FFE7FFE70D98C078C00600280DD57C
:1041A000FFE740F6E841C4F20261086820F40040ED
:1041B0000D9AD2F8A82010430860FFE79DF82A0066
:1041C0000EB080BD80B588B006900591069820B9E4
:1041D000FFE701208DF81F0084E2059842F20001FC
:1041E000C4F20201096801F00F01884216D9FFE705
:1041F00042F20000C4F20200016821F00F01059AAA
:1042000011430160006800F00F000599884204D056
:10421000FFE701208DF81F0064E2FFE706980078B1
:10422000C006002819D5FFE70698406940F62441EA
:10423000C4F20261096801F0700188420CD9FFE7FD
:1042400040F62441C4F20261086820F07000069A2A
:10425000526910430860FFE7FFE7069800780007FF
:1042600000281BD5FFE70698006940F62041C4F2FC
:104270000261096801F4E061B0EB111F0DD9FFE79D
:1042800040F62041C4F20261086820F4E060069A1A
:10429000126940EA02100860FFE7FFE7069800781D
:1042A0004007002819D5FFE70698C06840F620416E
:1042B000C4F20261096801F0700188420CD9FFE77D
:1042C00040F62041C4F20261086820F07000069AAE
:1042D000D26810430860FFE7FFE706980078800780
:1042E000002819D5FFE70698806840F62041C4F2FF
:1042F0000261096801F00F0188420CD9FFE740F61E
:104300002041C4F20261086820F00F00069A92680A
:1043100010430860FFE7FFE706980078C007002811
:1043200000F01F81FFE700208DF80B000698406821
:1043300003285BD1FFE740F69440C4F202600068B6
:104340004007002813D4FFE7FFE740F69440C4F28B
:104350000260016841F004010160006800F004009F
:1043600001900198FFE701208DF80B00FFE7FDF7B2
:10437000C1F8039040F60C00C4F2026000684003EC
:10438000002817D5FFE7FFE740F60C00C4F20260F3
:104390000068400400280CD4FFE7FDF7ABF8039950
:1043A000401A032804D3FFE703208DF81F0099E18A
:1043B000EAE7FFE79DF80B00012809D1FFE740F687
:1043C0009441C4F20261086820F004000860FFE72D
:1043D00040F60040C4F2026000688001002804D466
:1043E000FFE701208DF81F007CE134E0069840686B
:1043F00002280ED1FFE740F60040C4F202600068D8
:104400008003002804D4FFE701208DF81F0069E134
:1044100020E00698406870B9FFE740F60040C4F21B
:10442000026000684007002804D4FFE701208DF8EF
:104430001F0057E10DE040F60040C4F20260006842
:104440004005002804D4FFE701208DF81F0049E152
:10445000FFE7FFE7FFE740F61C41C4F2026108688E
:1044600020F00300069A526810430860FDF742F8F6
:1044700003900698406803281AD1FFE7FFE740F64B
:104480001C40C4F20260006800F00C000C280ED042
:10449000FFE7FDF72FF80399401A41F2893188426E
:1044A00004D3FFE703208DF81F001BE1E7E757E087
:1044B0000698406802281AD1FFE7FFE740F61C4043
:1044C000C4F20260006800F00C0008280ED0FFE77C
:1044D000FDF710F80399401A41F28931884204D35C
:1044E000FFE703208DF81F00FCE0E7E737E00698C0
:1044F0004068C8B9FFE7FFE740F61C40C4F202601D
:10450000006810F00C0F0ED0FFE7FCF7F3FF0399E3
:10451000401A41F28931884204D3FFE703208DF825
:104520001F00DFE0E8E719E0FFE740F61C40C4F2B7
:104530000260006800F00C0004280ED0FFE7FCF7D2
:10454000D9FF0399401A41F28931884204D3FFE729
:1045500003208DF81F00C5E0E7E7FFE7FFE7FFE76F
:10456000FFE7069800788007002819D5FFE706982E
:10457000806840F62041C4F20261096801F00F0131
:1045800088420CD2FFE740F62041C4F2026108687D
:1045900020F00F00069A926810430860FFE7FFE7DB
:1045A000059842F20001C4F20201096801F00F010E
:1045B000884216D2FFE742F20000C4F2020001680E
:1045C00021F00F01059A11430160006800F00F000F
:1045D0000599884204D0FFE701208DF81F0081E093
:1045E000FFE7069800784007002819D5FFE70698EE
:1045F000C06840F62041C4F20261096801F0700110
:1046000088420CD2FFE740F62041C4F202610868FC
:1046100020F07000069AD26810430860FFE7FFE7B9
:1046200006980078000700281BD5FFE70698006968
:1046300040F62041C4F20261096801F4E061B0EB88
:10464000111F0DD2FFE740F62041C4F20261086855
:1046500020F4E060069A126940EA02100860FFE761
:10466000FFE706980078C006002819D5FFE70698EE
:10467000406940F62441C4F20261096801F070010A
:1046800088420CD2FFE740F62441C4F20261086878
:1046900020F07000069A526910430860FFE7FFE7B8
:1046A00000F0AAF840F62041C4F20261096801F066
:1046B0000F024CF61841C0F60001895CC84040F278
:1046C0000401C2F20001086040F21000C2F20000D2
:1046D0000068FCF765FF8DF813009DF813008DF856
:1046E0001F00FFE79DF81F0008B080BD82B0019059
:1046F000009101991F20086040F61C40C4F202603E
:10470000006800F003000199486040F62040C4F2C0
:104710000260016801F00F01019A9160016801F0E7
:104720007001019AD160006800F4E060000901990D
:10473000086140F62440C4F20260006800F0700096
:104740000199486142F20000C4F20200006800F0E2
:104750000F000099086002B07047000080B500F0BB
:104760004BF840F62041C4F20261096801F00F02E3
:104770004CF61841C0F60001895C20FA01F140F2C4
:104780000400C2F200000160006880BD80B5FFF740
:10479000E5FF40F62041C4F202610968C1F302124C
:1047A0004CF62841C0F60001895CC84080BD00007D
:1047B00080B5FFF7D3FF40F62041C4F202610968DB
:1047C000C1F302224CF62841C0F60001895CC840C2
:1047D00080BD000080B5FFF7C1FF40F62441C4F260
:1047E00002610968C1F302124CF62841C0F60001CB
:1047F000895CC84080BD00008BB000200A90059005
:1048000040F61C40C4F20260006800F00C00049006
:1048100040F62840C4F20260006800F003000390F4
:10482000049840B1FFE704980C282DD1FFE70398C6
:10483000012829D1FFE740F60840C4F20260006871
:104840000002002809D4FFE740F6F440C4F20260F9
:10485000006880B2000B0A9007E040F60840C4F2FE
:1048600002600068000F0A90FFE70A994CF6B0401A
:10487000C0F6000050F821000A90049818B9FFE72C
:104880000A980590FFE71CE040F61C40C4F2026065
:10489000006800F00C00042806D1FFE742F2004057
:1048A000C0F2F40005900BE00498082806D1FFE759
:1048B00041F20020C0F27A00059000E0FFE7FFE738
:1048C000FFE704980C2840F0B880FFE740F6284046
:1048D000C4F20260016801F003010991016801F46A
:1048E0007062012101EB122107910068C0F30010F2
:1048F0000690069840F63841C4F20261096889B210
:10490000C90800FB01F000EE100AB8EE400A8DED78
:10491000020A09980090012850D0FFE70098022869
:1049200004D0FFE70098032824D048E09DED070A53
:10493000B8EE401A9FED440A80EE010A40F634407A
:10494000C4F2026000686FF35F2001EE100AB8EE57
:10495000411A9DED022A9FED3B3A82EE032A31EE89
:10496000021AB7EE002A31EE021A20EE010A8DED8E
:10497000010A4AE09DED070AB8EE401A9FED300AA1
:1049800080EE010A40F63440C4F2026000686FF322
:104990005F2001EE100AB8EE411A9DED022A9FED4C
:1049A000293A82EE032A31EE021AB7EE002A31EEDE
:1049B000021A20EE010A8DED010A26E0FFE79DEDC7
:1049C0000A0AB8EE400A9DED071AB8EE411A80EEC9
:1049D000010A40F63440C4F2026000686FF35F20C1
:1049E00001EE100AB8EE411A9DED022A9FED153A2C
:1049F00082EE032A31EE021AB7EE002A31EE021AD5
:104A000020EE010A8DED010AFFE740F63440C4F2C2
:104A10000260006800F0FE41012000EB1160089088
:104A20009DED010A9DED081AB8EE411A80EE010ACB
:104A3000BCEEC00A8DED050AFFE705980BB0704784
:104A40000024F44A000000460024744B10B592B0D4
:104A5000109000208DF82F00109828B9FFE7012052
:104A60008DF8470001F05EB840F61C40C4F20260C9
:104A7000006800F00C000D9040F62840C4F202607F
:104A8000006800F003000C9010980078C006002821
:104A900040F1CD81FFE70D9850B1FFE70D980C284C
:104AA00040F01E81FFE70C98012840F01981FFE7D4
:104AB0001098C06928B9FFE701208DF8470001F080
:104AC00031B81098406A019040F60840C4F2026084
:104AD00000680002002809D5FFE740F60840C4F24C
:104AE0000260006800F07040009009E040F6F44079
:104AF000C4F20260006800F4704000040090FFE718
:104B00000198009988426AD9FFE70D9860B9FFE7DC
:104B10001098406A03F01AFE28B1FFE701208DF8D3
:104B2000470000F0FFBFFFE7FFE740F60841C4F28F
:104B30000261086840F400000860086820F07040D6
:104B4000109A526A10430860FFE7FFE71098406A26
:104B5000B0F1404F0CD3FFE740F60C41C4F20261C4
:104B6000086820F01F00109A126A1043086034E0B1
:104B70001098406AB0F1FF3F0DDCFFE740F60C41B2
:104B8000C4F20261086820F47870109A126A40EA50
:104B90004210086020E01098406AB0F1804F0DD3B9
:104BA000FFE740F60C41C4F20261086820F4F840C7
:104BB000109A126A40EA822008600CE040F60C412C
:104BC000C4F20261086820F47820109A126A40EA60
:104BD000C2300860FFE7FFE7FFE7FFE769E0FFE7B4
:104BE00040F60841C4F20261086840F40000086021
:104BF000086820F07040109A526A10430860FFE77E
:104C0000FFE71098406AB0F1404F0CD3FFE740F641
:104C10000C41C4F20261086820F01F00109A126A69
:104C20001043086034E01098406AB0F1FF3F0DDC9B
:104C3000FFE740F60C41C4F20261086820F4787086
:104C4000109A126A40EA4210086020E01098406A08
:104C5000B0F1804F0DD3FFE740F60C41C4F2026182
:104C6000086820F4F840109A126A40EA822008602E
:104C70000CE040F60C41C4F20261086820F4782090
:104C8000109A126A40EAC2300860FFE7FFE7FFE7C8
:104C9000FFE70D9860B9FFE71098406A03F056FDF2
:104CA00028B1FFE701208DF8470000F03BBFFFE788
:104CB000FFE7FFF753FD40F21000C2F2000000686A
:104CC000FCF76EFC8DF83B009DF83B0030B1FFE730
:104CD0009DF83B008DF8470000F024BFFFE7A5E0FA
:104CE0001098C06900287DD0FFE740F60041C4F26B
:104CF0000261086840F001000860FCF7FBFB0F90C0
:104D0000FFE740F60040C4F2026000684007002858
:104D10000DD4FFE7FCF7EEFB0F99401A032805D3EB
:104D2000FFE703208DF8470000F0FCBEE9E7FFE74E
:104D300040F60841C4F20261086840F400000860CF
:104D4000086820F07040109A526A10430860FFE72C
:104D5000FFE71098406AB0F1404F0CD3FFE740F6F0
:104D60000C41C4F20261086820F01F00109A126A18
:104D70001043086034E01098406AB0F1FF3F0DDC4A
:104D8000FFE740F60C41C4F20261086820F4787035
:104D9000109A126A40EA4210086020E01098406AB7
:104DA000B0F1804F0DD3FFE740F60C41C4F2026131
:104DB000086820F4F840109A126A40EA82200860DD
:104DC0000CE040F60C41C4F20261086820F478203F
:104DD000109A126A40EAC2300860FFE7FFE7FFE777
:104DE000FFE722E040F60041C4F20261086820F0CB
:104DF00001000860FCF77EFB0F90FFE740F60040E3
:104E0000C4F202600068400700280DD5FFE7FCF7F8
:104E100071FB0F99401A032805D3FFE703208DF893
:104E2000470000F07FBEE9E7FFE7FFE7FFE71098E4
:104E30000078C007002800F0A580FFE70D9808283B
:104E400008D0FFE70D980C280ED1FFE70C98032837
:104E50000AD1FFE71098406828B9FFE701208DF8D4
:104E6000470000F05FBE8CE0FFE710984068B0F5A7
:104E7000803F09D1FFE740F60041C4F202610868B3
:104E800040F48030086040E010984068B0F5A02FF2
:104E900011D1FFE740F60041C4F20261086840F416
:104EA00080200860086820F480100860086840F4DA
:104EB0008030086028E010984068B0F5A81F11D134
:104EC000FFE740F60041C4F20261086840F4802028
:104ED0000860086840F480100860086840F480307A
:104EE000086010E040F60041C4F20261086820F456
:104EF00080300860086820F480200860086820F48A
:104F000080100860FFE7FFE7FFE7FFE710984068C1
:104F1000D8B1FFE7FCF7EEFA0F90FFE740F600404C
:104F2000C4F202600068800300280DD4FFE7FCF79C
:104F3000E1FA0F99401A652805D3FFE703208DF8A1
:104F4000470000F0EFBDE9E71AE0FCF7D3FA0F9055
:104F5000FFE740F60040C4F20260006880030028CA
:104F60000DD5FFE7FCF7C6FA0F99401A652805D35F
:104F7000FFE703208DF8470000F0D4BDE9E7FFE725
:104F8000FFE7FFE710980078800700287BD5FFE750
:104F90000D98042808D0FFE70D980C281BD1FFE7D7
:104FA0000C98022817D1FFE71098C06828B9FFE7CE
:104FB00001208DF8470000F0B5BD40F61041C4F265
:104FC0000261086820F4F810109A126940EA024061
:104FD0000860FFE756E01098C06878B3FFE740F636
:104FE0000041C4F20261086840F480700860FCF778
:104FF00081FA0F90FFE740F60040C4F202600068BB
:10500000400500280DD4FFE7FCF774FA0F99401A09
:10501000032805D3FFE703208DF8470000F082BD89
:10502000E9E740F61041C4F20261086820F4F81084
:10503000109A126940EA0240086022E040F60041FE
:10504000C4F20261086820F480700860FCF752FA2C
:105050000F90FFE740F60040C4F202600068400590
:1050600000280DD5FFE7FCF745FA0F99401A0328F1
:1050700005D3FFE703208DF8470000F053BDE9E7B3
:10508000FFE7FFE7FFE7109800780007002840F1EE
:10509000F980FFE700208DF8230040F69440C4F229
:1050A000026000684007002813D4FFE7FFE740F6DE
:1050B0009440C4F20260016841F00401016000689C
:1050C00000F0040007900798FFE701208DF8230007
:1050D000FFE740F62800C4F202600068C00710BB7A
:1050E000FFE740F62801C4F20261086840F00100C1
:1050F0000860FCF7FFF90F90FFE740F62800C4F2C4
:1051000002600068C00768B9FFE7FCF7F3F90F9980
:10511000401A032805D3FFE703208DF8470000F06D
:1051200001BDEAE7FFE710984069002878D0FFE763
:1051300040F6F040C4F20260006806901098806962
:10514000069901F08051884247D0FFE79DF81B0087
:10515000000700280CD5FFE7069800F08060B0F14A
:10516000806F05D0FFE701208DF8470000F0DABC22
:105170009DF81B004007002823D5FFE740F6F041CB
:10518000C4F20261086820F0A0500860FCF7B2F990
:105190000F90FFE740F6F040C4F2026000680001A3
:1051A00000280DD5FFE7FCF7A5F90F99401A06284E
:1051B00005D3FFE703208DF8470000F0B3BCE9E713
:1051C000FFE740F6F041C4F20261086820F0805029
:1051D000109A926910430860FFE740F6F041C4F26C
:1051E0000261086840F080600860FCF783F90F9066
:1051F000FFE740F6F040C4F20260006800010028BA
:105200000DD4FFE7FCF776F90F99401A062805D36D
:10521000FFE703208DF8470000F084BCE9E722E0B7
:1052200040F6F041C4F20261086820F0A050086026
:10523000FCF760F90F90FFE740F6F040C4F202601F
:105240000068000100280DD5FFE7FCF753F90F991E
:10525000401A062805D3FFE703208DF8470000F029
:1052600061BCE9E7FFE79DF82300012809D1FFE7CA
:1052700040F69441C4F20261086820F0040008601E
:10528000FFE7FFE7109800784007002840F13781DA
:10529000FFE700208DF8170040F69440C4F202604A
:1052A00000684007002813D4FFE7FFE740F694406A
:1052B000C4F20260016841F004010160006800F07E
:1052C000040004900498FFE701208DF81700FFE721
:1052D00040F62800C4F202600068C00710BBFFE778
:1052E00040F62801C4F20261086840F0010008603D
:1052F000FCF700F90F90FFE740F62800C4F20260C7
:105300000068C00768B9FFE7FCF7F4F80F99401A86
:10531000032805D3FFE703208DF8470000F002BC07
:10532000EAE7FFE71098007AC007E8B1FFE71098B6
:10533000007A400700280DD5FFE740F6F041C4F29F
:105340000261086840F004000860086840F001004D
:10535000086008E040F6F041C4F20261086840F0DD
:1053600001000860FFE70CE040F6F041C4F2026182
:10537000086820F001000860086820F00400086058
:10538000FFE710988068002864D0FFE7FCF7B2F8C8
:105390000F90FFE740F6F040C4F20260006880071B
:1053A00000280ED4FFE7FCF7A5F80F99401A41F248
:1053B0008931884204D3FFE703208DF84700B1E329
:1053C000E8E71098007A0006002821D5FFE740F6AC
:1053D000F041C4F20261086840F080000860FFE715
:1053E00040F6F040C4F202600068000500280ED4C8
:1053F000FFE7FCF77FF80F99401A41F289318842A4
:1054000004D3FFE703208DF847008BE3E8E720E0B3
:1054100040F6F041C4F20261086820F080000860A4
:10542000FFE740F6F040C4F2026000680005002883
:105430000ED5FFE7FCF75EF80F99401A41F289316B
:10544000884204D3FFE703208DF847006AE3E8E7CA
:10545000FFE745E0FCF74EF80F90FFE740F6F0401D
:10546000C4F202600068800700280ED5FFE7FCF751
:1054700041F80F99401A41F28931884204D3FFE77D
:1054800003208DF847004DE3E8E740F6F040C4F212
:10549000026000680006002821D5FFE740F6F041D1
:1054A000C4F20261086820F080000860FFE740F65F
:1054B000F040C4F202600068000500280ED5FFE746
:1054C000FCF718F80F99401A41F28931884204D349
:1054D000FFE703208DF8470024E3E8E7FFE7FFE755
:1054E0009DF81700012809D1FFE740F69441C4F266
:1054F0000261086820F004000860FFE7FFE71098E9
:1055000000788006002849D5FFE71098C06A10B3DC
:10551000FFE740F60041C4F20261086840F48050A1
:105520000860FBF7E7FF0F90FFE740F60040C4F28A
:1055300002600068800400280CD4FFE7FBF7DAFF64
:105540000F99401A032804D3FFE703208DF8470082
:10555000E8E2EAE721E040F60041C4F202610868AF
:1055600020F480500860FBF7C5FF0F90FFE740F67E
:105570000040C4F202600068800400280CD5FFE7F8
:10558000FBF7B8FF0F99401A032804D3FFE7032065
:105590008DF84700C6E2EAE7FFE7FFE710980078DA
:1055A0000006002849D5FFE71098006B10B3FFE70D
:1055B00040F60041C4F20261086840F4804008608F
:1055C000FBF798FF0F90FFE740F60040C4F202603F
:1055D0000068000400280CD4FFE7FBF78BFF0F994D
:1055E000401A032804D3FFE703208DF8470099E20F
:1055F000EAE721E040F60041C4F20261086820F4C5
:1056000080400860FBF776FF0F90FFE740F6004010
:10561000C4F202600068000400280CD5FFE7FBF725
:1056200069FF0F99401A032804D3FFE703208DF880
:10563000470077E2EAE7FFE7FFE7109800784006C7
:10564000002840F1A580FFE71098406B00287CD02F
:10565000FFE7FFE740F60841C4F20261086840F442
:1056600000000860086820F07060109A926A104389
:105670000860FFE7FFE71098406AB0F1404F0CD395
:10568000FFE740F60C41C4F20261086820F01F00F9
:10569000109A126A1043086034E01098406AB0F122
:1056A000FF3F0DDCFFE740F60C41C4F202610868E1
:1056B00020F47870109A126A40EA4210086020E0E4
:1056C0001098406AB0F1804F0DD3FFE740F60C41CF
:1056D000C4F20261086820F4F840109A126A40EAA5
:1056E000822008600CE040F60C41C4F202610868B8
:1056F00020F47820109A126A40EAC2300860FFE76E
:10570000FFE7FFE7FFE740F60041C4F202610868E7
:1057100040F010000860FBF7EDFE0F90FFE740F649
:105720000040C4F202600068800600280CD4FFE745
:10573000FBF7E0FE0F99401A032804D3FFE703208C
:105740008DF84700EEE1EAE721E040F60041C4F2BF
:105750000261086820F010000860FBF7CBFE0F9094
:10576000FFE740F60040C4F20260006880060028AF
:105770000CD5FFE7FBF7BEFE0F99401A032804D3B0
:10578000FFE703208DF84700CCE1EAE7FFE7FFE7FA
:105790001098806B002800F0C181FFE700208DF891
:1057A0000F0040F61C40C4F20260006800F00C00DC
:1057B0000C2800F02C81FFE71098806B022840F045
:1057C000F880FFE740F60041C4F20261086820F06B
:1057D00080700860FBF78EFE0F90FFE740F60040F8
:1057E000C4F202600068800100280CD5FFE7FBF7D7
:1057F00081FE0F99401A032804D3FFE703208DF898
:1058000047008FE1EAE740F69440C4F20260006886
:105810004007002813D4FFE7FFE740F69440C4F2A6
:105820000260016841F004010160006800F00400BA
:1058300002900298FFE701208DF80F00FFE740F685
:105840000C00C4F2026000684003002804D5FFE7A2
:1058500001208DF82F00FFE740F60C01C4F2026131
:10586000086820F480200860FFE740F62841C4F271
:10587000026108684FF603729043109BDA6BD3F80D
:1058800040E05B6C6FF0FF0C0CEB0E2C42EA0C025C
:105890001A431043086040F63441C4F202610868BC
:1058A0000022C8F280021040109B9A6CDC6CD3F886
:1058B00050E0D3F854C0013A6FF35F224FF6006313
:1058C000CFF6FF7303EB44239BB21A440023CFF6B9
:1058D000FF7303EB0E4303F4FE031A444FF07F43C0
:1058E00003EB0C6303F0FE431A4410440860FFE727
:1058F00040F62841C4F20261086820F010000860F8
:105900001098C06DC00040F63842C4F202621060C8
:10591000086840F010000860086820F00C00109A39
:10592000926D104308609DF82F00012809D1FFE710
:1059300040F60C01C4F20261086840F4802008605F
:10594000FFE79DF80F00012809D1FFE740F69441D9
:10595000C4F20261086820F004000860FFE740F626
:105960000041C4F20261086840F080700860FBF7F3
:10597000C1FD0F90FFE740F60040C4F202600068EE
:10598000800100280CD4FFE7FBF7B4FD0F99401A03
:10599000032804D3FFE703208DF84700C2E0EAE7BD
:1059A00040F62841C4F20261086840F48020086093
:1059B0002CE040F60041C4F20261086820F08070DB
:1059C0000860FBF797FD0F90FFE740F60040C4F238
:1059D00002600068800100280CD5FFE7FBF78AFD14
:1059E0000F99401A032804D3FFE703208DF84700DE
:1059F00098E0EAE740F62841C4F2026108684FF6F1
:105A0000FC72CFF6F87210400860FFE785E040F6C0
:105A10002840C4F2026000680A9040F63440C4F2A4
:105A20000260006809901098806B012840D0FFE761
:105A30000A9800F003001099C96B884238D1FFE73B
:105A40000A9800F470611098006C0138B0EB112FC7
:105A50002ED1FFE70A9800F470401099496C8842F3
:105A600026D1FFE709986FF35F201099896C0139FF
:105A700088421DD1FFE7BDF824101098C06C013892
:105A8000B0EB512F14D1FFE7099800F4FE011098F4
:105A9000006D0138B0EB114F0AD1FFE7099800F013
:105AA000FE411098406D0138B0EB116F04D0FFE754
:105AB00001208DF8470035E040F63840C4F202601E
:105AC000006881B21098C06DB0EBD10F24D0FFE711
:105AD00040F62841C4F20261086820F01000086016
