:020000040800F2
:10000000D0160020D9020008111D0008AD1C000800
:100010000D1D000829050008C5200008EB02000896
:10002000000000000000000000000000811D00082A
:100030002D05000800000000211D0008C51D000856
:10004000F5020008F5020008F5020008F5020008B4
:10005000F5020008F5020008F5020008F5020008A4
:10006000F5020008F5020008F5020008F502000894
:10007000F5020008F5020008F5020008F502000884
:10008000F5020008F5020008F5020008F502000874
:10009000F5020008F5020008F5020008F502000864
:1000A000F5020008F5020008F5020008F502000854
:1000B00000000000F5020008F5020008F502000843
:1000C000F5020008F5020008F5020008F502000834
:1000D000F5020008F5020008F5020008F502000824
:1000E000F5020008F5020008F5020008F502000814
:1000F000F5020008F5020008F5020008F502000804
:10010000F5020008F5020008311E0008F50200089B
:10011000F5020008F5020008F5020008F5020008E3
:10012000F5020008F5020008F5020008F5020008D3
:10013000F5020008F5020008F5020008F5020008C3
:10014000F5020008F5020008F5020008F5020008B3
:10015000F5020008F5020008F5020008F5020008A3
:10016000F5020008F5020008F5020008F502000893
:10017000F5020008F5020008F5020008F502000883
:10018000F5020008F5020008F5020008F502000873
:10019000F5020008F5020008F5020008F502000863
:1001A000F5020008F5020008F5020008F502000853
:1001B000F502000800000000F5020008F502000842
:1001C000F502000800000000F5020008F502000832
:1001D000F5020008F5020008F5020008F502000823
:1001E000F5020008F5020008F5020008F502000813
:1001F0000000000000000000F5020008F502000801
:10020000F5020008F5020008F5020008F5020008F2
:10021000F5020008F5020008F5020008F5020008E2
:10022000F5020008F5020008F5020008F5020008D2
:10023000F5020008F502000800F002F800F03CF8B2
:100240000AA090E8000C82448344AAF10107DA4531
:1002500001D100F031F8AFF2090EBAE80F0013F047
:10026000010F18BFFB1A43F001031847D83B0000E9
:10027000F83B0000103A24BF78C878C1FAD852077A
:1002800024BF30C830C144BF04680C607047000010
:100290000023002400250026103A28BF78C1FBD88F
:1002A000520728BF30C148BF0B6070471FB503F02D
:1002B0005BFD1FBD10B510BD00F0FBF81146FFF748
:1002C000F5FF01F001FF00F019F903B4FFF7F2FFA9
:1002D00003BC00F021F900000A4880470A480047A3
:1002E000FEE7FEE7FEE7FEE7FEE7FEE7FEE7FEE7E6
:1002F000FEE7FEE7FEE7000004480549054A064B15
:1003000070470000E51D000839020008D0100020E9
:10031000D0160020D0120020D0120020032A40F274
:10032000308010F0030C00F0158011F8013BBCF197
:10033000020F624498BF11F801CB00F8013B38BFAF
:1003400011F8013BA2F1040298BF00F801CB38BFBD
:1003500000F8013B11F0030300F07980083AC0F087
:10036000088051F8043B083A51F804CBA0E8081083
:10037000F5E7121D5CBF51F8043B40F8043BAFF3B6
:100380000080D20724BF11F8013B11F801CB48BF10
:1003900011F8012B24BF00F8013B00F801CB48BF46
:1003A00000F8012B704702F0FF0343EA032242EA00
:1003B000024200F024B84FF000020429C0F012807D
:1003C00010F0030C00F01B80CCF1040CBCF1020F08
:1003D00018BF00F8012BA8BF20F8022BA1EB0C01DD
:1003E00000F00DB85FEAC17C24BF00F8012B00F8D3
:1003F000012B48BF00F8012B70474FF0000200B5F9
:10040000134694469646203922BFA0E80C50A0E837
:100410000C50B1F12001BFF4F7AF090728BFA0E8E5
:100420000C5048BF0CC05DF804EB890028BF40F8B1
:10043000042B08BF704748BF20F8022B11F0804FF3
:1004400018BF00F8012B704770477047704710B510
:10045000203AC0F00B80B1E81850A0E81850B1E87D
:100460001850A0E81850203ABFF4F5AF5FEA027CBC
:1004700024BFB1E81850A0E8185044BF18C918C0EC
:10048000BDE810405FEA827C24BF51F8043B40F88D
:10049000043B08BF7047D20728BF31F8023B48BF72
:1004A00011F8012B28BF20F8023B48BF00F8012BB0
:1004B0007047754600F02CF8AE4605006946534675
:1004C00020F00700854618B020B5FFF715FFBDE8FE
:1004D00020404FF000064FF000074FF000084FF0AB
:1004E000000BAC46ACE8C009ACE8C009ACE8C009F8
:1004F000ACE8C00921F007018D46704710B50446ED
:10050000AFF300802046BDE81040FFF7DEBE0000DC
:10051000004870471000002001491820ABBEFEE7DC
:100520002600020070470000FEE700007047000050
:1005300040F6D430C2F200000068704740F200007C
:1005400040F6D431C2F20000C2F2000100780A681D
:10055000104408607047000080B542F20000C4F209
:100560000200016841F480710160032000F0C6F8C8
:1005700000F03AFB40F62041C4F20261096843F6FC
:10058000825201F00F01C0F60002515CC84040F2F7
:100590000801C2F200010860042001F071F90F2087
:1005A00000F008F800281CBF012080BD00F054F8BE
:1005B000002080BDB0B588B040F69C41C4F2026115
:1005C0000A68044642F020020A60096802A801F0A5
:1005D00020010291029901A900F0C0FA00F0E4FAAA
:1005E0004DF68361C4F21B31A0FB01014FF0FF30D7
:1005F00000EB914140F2346041F20043C2F200004E
:1006000040F2E732C4F200030025C0E90031C0E93E
:100610000252056101F08AF90546B0B940F2346032
:10062000C2F2000001F0B6F9054670B90F2C0BD8E4
:10063000322021460022002500F034F840F2040068
:10064000C2F20000046000E00125322000F01AF838
:10065000284608B0B0BD000081B040F69440C4F216
:1006600002600168002241F00401016000680F216E
:1006700000F00400009000986FF0010001B000F05D
:1006800011B80000002848BF704700F01F01012288
:1006900002FA01F14EF200124009CEF2000242F8D5
:1006A0002010704710B54EF60C5CCEF2000CDCF852
:1006B0000030C3F3022E8EF00704042C28BF04245C
:1006C000BEF103034FF0FF3E38BF00230EFA04F4DF
:1006D000A14399400EFA03F39A4300F00F03043B41
:1006E0001143634409010C3300F16042B0F1FF3F54
:1006F000C8BF02F56443197010BD00004EF60C51DE
:10070000CEF200010A684FF6FF031A4060F30A2296
:1007100042F0806040F0FD700860704780B540F6A0
:100720000C0CC4F2026CDCF8301001F44031814250
:100730000CD1B0F1011FC0F07F80DCF8000040F464
:100740008020CCF80000002080BD00BFDCF8001045
:10075000B0F5803F21F4E02141EA000140F20800B9
:1007600088BF41F48021CCF80010C2F2000000687C
:1007700041F25971CDF2B711A0FB01014FEA913E50
:10078000734600BFDCF80010B3F1FF3218BF01223E
:10079000581C22D011F400401FD1DCF80010002BAF
:1007A0001A4618BF012218D011F4004015D1DCF808
:1007B00000105A1E18BF0122012B0ED011F4004068
:1007C0000BD1DCF800109A1E18BF0122022B04D0B6
:1007D00011F40040A3F10403D4D0A2B3DCF830102C
:1007E0001EF1010224D011F4004021D1DCF83010B8
:1007F000BEF1000F1DD011F400401AD1DCF830100A
:10080000BEF1010F1AD011F4004017D1DCF83010FE
:10081000BEF1020FAEF1040203D011F4004096467F
:10082000DCD002F1020EBEF1000F05D10BE000BFDB
:100830009646BEF1000F06D0002080BDAEF1010E3D
:10084000BEF1000FF8D1032080BD000040F63C004F
:10085000C4F20260006800F4403070472DE9F04FA8
:1008600081B0002800F01C8142F20008C4F20208A6
:100870000446D8F800000D4600F00F0088420DD263
:10088000D8F8000020F00F002843C8F80000D8F87E
:10089000000000F00F00A84240F00281206840F6FE
:1008A0002049C106C4F202690DD56169D9F8042056
:1008B00002F07002914206D9D9F8042022F07002A9
:1008C0001143C9F8041001070FD52169D9F8002098
:1008D000702303EA1212914207D9D9F8002022F4BA
:1008E000E06242EA0111C9F8001041070DD5E16844
:1008F000D9F8002002F07002914206D9D9F8002000
:1009000022F070021143C9F8001081070DD5A168CB
:10091000D9F8002002F00F02914206D9D9F8002040
:1009200022F00F021143C9F80010C00774D12068EB
:1009300081070DD5A168D9F8002002F00F0291427D
:1009400006D2D9F8002022F00F021143C9F8001096
:10095000D8F8001001F00F01A9420DD9D8F8001005
:1009600021F00F012943C8F80010D8F8001001F059
:100970000F01A94240F0948041070DD5E168D9F8F4
:10098000002002F07002914206D2D9F8002022F035
:1009900070021143C9F8001001070FD52169D9F879
:1009A0000020702303EA1212914207D2D9F80020E6
:1009B00022F4E06242EA0111C9F80010C0060DD528
:1009C0006069D9F8041001F07001884206D2D9F8A4
:1009D000041021F070010843C9F8040000F004F984
:1009E000D9F8001043F6825201F00F01C0F6000260
:1009F000525C40F20401C2F20001096840F20803AF
:100A000020FA02F2C2F2000308461A6001B0BDE803
:100A1000F04FFFF7CFBD00BF606840F61C47C4F23F
:100A2000026768B3022831D0032835D1D9F87400A1
:100A300010F0040A0BD1D9F8740040F00400C9F892
:100A40007400D9F8740000F0040000900098FFF7DB
:100A50006FFD4FF6F03BCFF6FF7B57F80B104903C5
:100A600022D4BAF1000F05D1D9F8740020F00400A7
:100A7000C9F8740057F81C0C800111D5606822E099
:100A800057F81C0C40070BD500201CE057F81C0C35
:100A9000800317D4012042E057F81C1C490512D4EA
:100AA000012001B0BDE8F08F064600BF57F80B00EB
:100AB0004004D6D4FFF73CFD801B02284FF0030012
:100AC000F4D92CE00220396821F003010843386092
:100AD000FFF72EFD61680646032941F2883A28D0C7
:100AE000022934D071B900BF386810F00C0F3FF400
:100AF0001EAFFFF71DFD801B50454FF00300F3D9DB
:100B00000DE000BF386800F00C0004283FF40FAF80
:100B1000FFF70EFD801B50454FF00300F2D901B0E6
:100B2000BDE8F08FFFF704FD801B50454FF0030038
:100B3000F5D8386800F00C000C28F3D1F7E600BFB8
:100B4000FFF7F6FC801B50454FF00300E7D83868EC
:100B500000F00C000828F3D1E9E600001F22026033
:100B600040F62042C4F2026252F8043C03F0030350
:100B70004360136803F00F038360136803F070038E
:100B8000C360D2F800C0702303EA1C1303615268EB
:100B900002F07002426142F20000C4F202000068FA
:100BA00000F00F000860704780B500F01DF840F6B7
:100BB0002041C4F202610A6843F6825302F00F0238
:100BC000C0F600039A5CD04040F20802C2F2000274
:100BD0001060096843F69252C1F30211C0F6000298
:100BE000515CC84080BD000080B540F62841C4F289
:100BF000026151F80C0C10F00C02086816D00C2A97
:100C000004BF00F00300012810D051F80C0C9FED38
:100C1000370A00F00C00042842F20040C0F2F40051
:100C20001ED0082A18BF00201AE000BF51F8200C7F
:100C3000000205D4D1F8CC00C0F3033003E000BFBC
:100C400051F8200C000F43F69C53C0F6000353F8F4
:100C50002000002A00EE100A18BF0020B8EE400A5B
:100C60000C2A18BF80BDD1F800C00A689FED201A79
:100C7000C2F303220B6802F1010E08695FEA8C726D
:100C800058BFB0EE401A00EE10EAC3F30013B8EEFE
:100C9000400AC0F3CC0081EE000A00FB03F09FED98
:100CA000153A01EE100AC868B8EE411A6FF35F20DA
:100CB00002EE100A21EE031AB8EE422AC86831EE9D
:100CC000021AB7EE002AC0F3066031EE021A0130B4
:100CD00020EE010A01EE100AB8EE411A80EE010A78
:100CE000BCEEC00A10EE100A80BD00BF000000007C
:100CF0000024744B000000392DE9F04381B0002836
:100D000000F0468440F694490446C4F2026959F85A
:100D1000780C59F86C1C227800F00C07D00601F012
:100D2000030823D42078C0077AD0082F74D00C2F62
:100D300008BFB8F1030F6FD0606840F60046B0F509
:100D4000803FC4F2026600F0EB82B0F5A81F00F00D
:100D5000DF82B0F5A02F40F0F782306840F48020A9
:100D60003060306820F48010D9E200BF17B30C2F38
:100D700008BFB8F1010F1DD040F60046C4F202666C
:100D8000E1693068002900F0BB8140F0010030606B
:100D9000FFF7CEFB054600BF3068400700F1C28177
:100DA000FFF7C6FB401B02284FF00300F4D901B047
:100DB000BDE8F083E069002800F0EA8340F60045D2
:100DC000C4F20265666AA86800025ABFD9F86000DA
:100DD0000004A86800F07040864240F26581002F50
:100DE00040F03483D9F80000400700F11383D9F8AC
:100DF000000040F00400C9F80000D9F8000000F03D
:100E0000040000900098FFF721FDD9F8001021F0B0
:100E10000401C9F80010FFE26068002800F0B88300
:100E2000207880072FD5042F20D00C2F08BFB8F1D1
:100E3000020F1BD040F60046C4F20266E16830683B
:100E4000002900F0298240F480703060FFF770FBC9
:100E5000054600BF306840050CD4FFF769FB401B16
:100E600002284FF00300F5D9A1E700BFE068002891
:100E700000F08E8359F8840C216920F4F81040EAC0
:100E8000014049F8840C207840F600470007C4F27E
:100E9000026775D42078400700F1CA802078800668
:100EA00000F116812078000600F15081207840067C
:100EB00000F1B881A56B002D00F0DE8459F8780CA4
:100EC00000F00C000C2840F06F8259F86C1C59F8A7
:100ED000600C012D00F05C83E26B01F00303934290
:100EE00040F05683226CC1F30323013A934240F051
:100EF0004F83626C01F47041914240F04983A26CCF
:100F000001466FF35F21013A914240F04183E16C69
:100F1000C0F3462201398A4240F03A83216DC0F382
:100F2000064201398A4240F03383616DC0F30660A6
:100F30000139884240F02C8359F85C0CE16DC0F314
:100F4000CC00884200F0988459F86C0C20F0100016
:100F500049F86C0CFFF7ECFA0546FFF7E9FAA842EE
:100F6000FBD0E06DC00049F85C0C59F86C0C40F007
:100F7000100049F86C0C002001B0BDE8F08300BF00
:100F8000D9F8000010F004080BD1D9F8000040F0A7
:100F90000400C9F80000D9F8000000F00400009037
:100FA00000984FF62846CFF6FF76B859C00713D100
:100FB000B85940F00100B851FFF7BAFA054600BF32
:100FC000B859C00708D1FFF7B3FA401B0228F7D978
:100FD000032001B0BDE8F0836069D9F85C100028F7
:100FE00000F0CC80A06901F08052904200F04A836A
:100FF00001F04062B2F1006F00F0CA82490140F195
:101000003A83D9F85C0020F0A050C9F85C00FFF7E3
:101010008FFA0546D9F85C00000140F12B83FFF7F9
:1010200087FA401B05284FF00300F3D9BFE600BF45
:10103000D9F8000010F004080BD1D9F8000040F0F6
:101040000400C9F80000D9F8000000F00400009086
:1010500000984FF62846CFF6FF76B859C00713D14F
:10106000B85940F00100B851FFF762FA054600BFD9
:10107000B859C00708D1FFF75BFA401B02284FF0B0
:101080000300F5D993E600BFA568E80740F08C801F
:10109000D9F85C0020F00100C9F85C00D9F85C00C8
:1010A00020F004008CE000BFA868B6F1404F40F487
:1010B0000000A860A86820F0704040EA0600A86020
:1010C000C0F0CA80E868216A20F01F0008431CE2D3
:1010D000E16A3868002900F0098140F480503860E6
:1010E000FFF726FA054600BF386880043FF5DAAE00
:1010F000FFF71EFA401B02284FF00300F4D956E612
:1011000020F001003060FFF713FA05463068400711
:101110007FF508AEFFF70CFA401B02284FF00300E2
:10112000F4D944E6B06840F40000B060B168606A89
:1011300021F070410143B0F1404FB160C0F09C809C
:10114000F068216A20F01F0008435EE2216B3868D6
:10115000002900F0178140F480403860FFF7E8F97B
:10116000054600BF386800043FF5A0AEFFF7E0F980
:10117000401B02284FF00300F4D918E621F0A050DC
:10118000C9F85C00FFF7D4F9054600BFD9F85C0048
:10119000000140F18F82FFF7CBF9401B05284FF08B
:1011A0000300F3D903E600BFD9F85C00690705D551
:1011B00040F00400C9F85C00D9F85C0040F0010080
:1011C000C9F85C00FFF7B4F9002D054641F28836F6
:1011D00014D000BFD9F85C0080076FD4FFF7A8F9DE
:1011E000401BB0424FF00300F4D9E0E5FFF7A0F94F
:1011F000401BB0424FF003003FF6D9ADD9F85C0078
:101200008007F3D4D9F85C00000600F10182B8F140
:10121000000F7FF443AED9F8000020F00400C9F8B5
:1012200000003BE6606B002800F0E080B86840F406
:101230000000B860B86820F07061D4E90902B0F12C
:10124000404F41EA0201B960C0F04A81F868216A62
:1012500020F01F000843DEE2B6F1FF3F40F31A81A1
:10126000E868B6F1804FC0F04B81216A20F4F84065
:1012700040EA812049E100BFB0F1FF3F40F3948193
:10128000F168B0F1804FC0F0BB81206A21F4F841D1
:1012900041EA8020B9E100BF20F480703060FFF7A0
:1012A00047F90546306840057FF5EDADFFF740F999
:1012B000401B02284FF00300F4D978E5A168D9F863
:1012C0005C00090600F1F88020F0800041F28836C9
:1012D000C9F85C00D9F85C00000598D5FFF728F93B
:1012E000401BB0424FF00300F4D960E520F4805079
:1012F0003860FFF71DF90546386880047FF5D2ADE8
:10130000FFF716F9401B02284FF00300F4D94EE511
:10131000306840F480203060306840F480103060E5
:10132000306840F480303060FFF702F9054600BFB6
:10133000306880033FF574ADFFF7FAF8401B64286E
:101340004FF00300F4D932E53168002821F48031F0
:101350003160316821F480213160316821F48011DD
:101360003160E1D1FFF7E4F80546306880037FF58E
:1013700057ADFFF7DDF8401B64284FF00300F4D9A8
:1013800015E500BF20F480403860FFF7D1F805462E
:10139000386800047FF58AADFFF7CAF8401B0228C1
:1013A0004FF00300F4D902E5386820F0807038600F
:1013B000FFF7BEF8022D05460CD13868800140F1D8
:1013C0008581FFF7B5F8401B02284FF00300F4D9E0
:1013D000EDE400BF3868800140F10882FFF7A8F80B
:1013E000401B02284FF00300F4D9E0E4386820F0F5
:1013F00010003860FFF79CF80546386880067FF5D6
:1014000059ADFFF795F8401B02284FF00300F4D9BF
:10141000CDE400BFFFF71AFA20F48031B1F5003FA8
:1014200040D10021B6F1805F38BF012142F20000B7
:10143000C4F20200026822F00F020A44026000684F
:1014400000F00F00884240F0A380666AA868B6F1F9
:10145000404F40F40000A860A86820F0704040EAC7
:101460000600A86006D3E868216A20F01F00084340
:10147000A7E000BFB6F1FF3F40F38E80E868B6F109
:10148000804FC0F09980216A20F4F84040EA812022
:1014900097E000BFE868216A20F4787040EA4110C4
:1014A00033E000BF0021B1EB167F40F0C780B0F5FC
:1014B000803F6DD10321B9E740F0800041F28836CA
:1014C000C9F85C00D9F85C0000053FF5A0AEFFF755
:1014D0002FF8401BB0424FF00300F3D967E400BF80
:1014E000B0F1FF3F40F38A81F968B0F1804FC0F05E
:1014F0008D81206A21F4F84141EA80208BE100BF10
:10150000216A20F4782040EAC130002FE86059D1E8
:10151000D9F80000400715D4D9F8000040F00400C5
:10152000C9F80000D9F8000000F00400009000980D
:10153000FFF78CF9D9F8001021F00401C9F8001068
:1015400002E000BFFFF782F920F48031B1F5003FDF
:1015500014D10021B6F1805F38BF012142F20000B2
:10156000C4F20200026822F00F020A44026000681E
:1015700000F00F0088420BD124E000BF0021B1EB46
:10158000167F69D1B0F5803F02D10321E6E700BFA5
:10159000012001B0BDE8F083E868216A20F478708A
:1015A00040EA41100DE000BFF068216A20F4787035
:1015B00040EA411029E000BF216A20F4782040EA87
:1015C000C130E860FFF710FB59F8741C43F68252F3
:1015D00001F00F01C0F60002515C40F2080220FA4F
:1015E00001F140F20400C2F200000068C2F2000201
:1015F0001160FEF7DFFF00287FF4D9ABFFF792BB45
:10160000206A21F4782141EAC030F060FFF78ABBFC
:10161000D9F85C0041F2883620F08000C9F85C00FF
:10162000D9F85C0000057FF5F2ADFEF781FF401BA5
:10163000B0424FF00300F3D9FFF7B9BBB6F1005F3A
:1016400040F20081B0FA80F000214009B6F1405F1D
:1016500098BF01210140E9E6B6F1005F40F2FC804D
:10166000B0FA80F000214009B6F1405F98BF012137
:10167000014073E7A069D9F85C1021F0805108435C
:10168000C9F85C00D9F85C0040F08060C9F85C00E3
:10169000FEF74EFF054600BFD9F85C00000109D4F3
:1016A000FEF746FF401B05284FF00300F4D9FFF773
:1016B0007EBB00BFB8F1000F7FF4ECABD9F800009F
:1016C00020F00400C9F80000FFF7E4BBD9F80000DF
:1016D00010F0040C0BD1D9F8001041F00401C9F846
:1016E0000010D9F8001001F00401009100994FF6A4
:1016F0000C48CFF6FF7857F808E057F808304FF657
:10170000037623F4802347F8083059F86C3CD4E979
:101710001102B343D4E90F656FF0FF01334318435F
:1017200001EB05214FF47E43084349F86C0C59F84E
:10173000600C0021C8F280010840511EE26C4FF499
:10174000FE0503EB4222236D6FF35F2105EB03439C
:10175000656D92B24FF0FE4606EB0565084403F452
:10176000FE03104405F0FE451844284449F8600C77
:1017700059F86C0C20F0100049F86C0CE06DC000BA
:1017800049F85C0C59F86C0C40F0100049F86C0CEE
:1017900059F86C0CA16D20F00C0008435FEA4E3143
:1017A00049F86C0C05D557F8080040F4802047F83C
:1017B0000800BCF1000F05D1D9F8000020F00400AA
:1017C000C9F80000386840F080703860FEF7B0FE5D
:1017D00004463868800149D4FEF7AAFE001B02289F
:1017E0004FF00300F5D9FFF7E2BA00BF59F86C0CCF
:1017F0004FF6FC71CFF6F87108403BE0F868216ABB
:1018000020F4787040EA411005E000BF206A21F41E
:10181000782141EAC030F860386840F01000386044
:10182000FEF786FE054600BF386880063FF542ABEE
:10183000FEF77EFE401B02284FF00300F4D9FFF7AD
:10184000B6BA00BF0221B0F5803F08BF0121B6F152
:10185000805F18BF0121E9E50221B0F5803F08BF94
:101860000121B6F1805F18BF012177E659F86C0CB1
:1018700040F4802049F86C0C002001B0BDE8F083F2
:10188000042888BF7047DFE800F0031527383900C7
:101890004EF21000CEF20000016821F00401016058
:1018A00040F6E040C4F20260016821F440010160AA
:1018B000704700BF4EF21000CEF200000168012216
:1018C00021F00401016040F6E040C4F202600168CA
:1018D00062F39751016070474EF21000CEF20000A3
:1018E0000168022221F00401016040F6E040C4F2E8
:1018F0000260016862F39751016070474EF2100078
:10190000CEF20000016841F0040101607047000060
:1019100070470000704700007047000070470000EB
:10192000704700007047000070470000002804BFA7
:101930000120704710B5044690F83D0028B90020FA
:1019400084F83C00204600F023F8022084F83D0093
:101950002068211D00F072FA012084F8480084F804
:101960003E0084F83F0084F8400084F8410084F889
:10197000420084F8430084F8440084F8450084F869
:10198000460084F8470084F83D00002010BD0000A8
:101990007047000090F83D1001291CBF01207047DE
:1019A000022180F83D100168C868B1F1A04F40F0F5
:1019B0000100C86016DA40F6FF30C4F20000814230
:1019C00026DD43F2FF30C4F2010081423CDC40F6E8
:1019D0000040C4F2000081424ED042F60040C4F202
:1019E000010047E040F6FF30C5F2000081421DDDF6
:1019F00043F2FF30C5F20100814231DC40F6004085
:101A0000C5F20000814237D042F6004030E000BF0E
:101A1000B1F1804F30D040F20040C4F2000081426A
:101A20002AD040F60000C4F2000023E0B1F1A04F3C
:101A300022D040F20040C5F2000081421CD040F6A6
:101A40000000C5F2000015E043F20040C4F20100BE
:101A5000814211D044F20000C4F201000AE000BF4C
:101A600044F20000C5F20100814205D043F200407B
:101A7000C5F2010081420DD188680722C0F201023F
:101A80000240062A4FF0000018BFB2F5803F01D196
:101A9000704700BF086840F00100086000207047F0
:101AA00070470000F0B581B004460068C768066959
:101AB00006EA0705A90739D468074DD4280763D477
:101AC000E8067AD4E80740F0928017F0800718BF44
:101AD00016F4025040F09980002F18BF16F4807061
:101AE00040F0A080680600F1A780A80600F1AE8053
:101AF000E80200F1B580A80200F1BC80680206D5BA
:101B000020686FF4800101612046FFF70BFF280277
:101B10005CBF01B0F0BD21686FF4000220460A618D
:101B200001B0BDE8F040FFF7FFBE00BF6FF002015B
:101B30000161012121778069800703D02046FFF7EA
:101B4000AFFF05E0204600F0A1F8204600F0A0F825
:101B5000002020776807B1D520686FF0040101618B
:101B600002212177806910F4407F03D02046FFF7DF
:101B700097FF05E0204600F089F8204600F088F83D
:101B80000020207728079BD520686FF008010161AD
:101B900004212177C069800704D02046FFF780FF29
:101BA00006E000BF204600F071F8204600F070F813
:101BB00000202077E8067FF585AF20686FF01001E0
:101BC000016108212177C06910F4407F04D02046CC
:101BD000FFF766FF06E000BF204600F057F82046FA
:101BE00000F056F800202077E8073FF46EAF206839
:101BF0006FF001010161204600F04CF817F08007FA
:101C000018BF16F402503FF467AF20686FF402511A
:101C100001612046FFF77EFE002F18BF16F480708A
:101C20003FF460AF20686FF4807101612046FFF7D8
:101C30006FFE68067FF559AF20686FF040010161C3
:101C4000204600F031F8A8067FF552AF20686FF00B
:101C5000200101612046FFF75FFEE8027FF54BAFF0
:101C600020686FF4801101612046FFF759FEA80239
:101C70007FF544AF20686FF4001101612046FFF743
:101C80004DFE68027FF543AF3AE700007047000061
:101C900070470000006841F20041C4F20001884230
:101CA00008BFFEF74BBC704770470000FEE700001E
:101CB00010B541F6A55043F6DC52C0F60000C0F660
:101CC0000002002100F0C4FA40F27004C2F20004E5
:101CD000206041F6AD5043F60062C0F60000C0F649
:101CE0000002002100F0B4FA606010BD81B040F63F
:101CF0008C40C4F20260016841F08001016000681C
:101D000000F080000090009801B07047FEE70000EE
:101D1000FEE70000000000000000000000000000DE
:101D2000EFF30980EFF30B82734620E9FC0F104AB2
:101D3000116808604FF0500080F31188BFF34F8F97
:101D4000BFF36F8F01F02EFB4FF0000080F311887E
:101D5000074A11680868B0E8FC0F82F30B8880F32B
:101D60000988184700BF00BF00BF00BF00BF00BF09
:101D700070070020000000000000000000000000CC
:101D80001EF0040F0CBFEFF30880EFF30980044945
:101D9000084700BF00BF00BF00BF00BF00BF00BFBB
:101DA0002D2F0008012000F0DBF9FBE740F2306442
:101DB000C2F20004206801302060012000F0D0F958
:101DC000F8E7000080B54EF21000CEF20000006887
:101DD00001F0A0FD012808BF80BDBDE8804001F0F2
:101DE000D1BB00004EF6885CCEF2000CDCF800108F
:101DF000012241F47001CCF8001040F60041C4F219
:101E000002610A600022CA610A624A620B684FF6E8
:101E1000FF70CEF6F620184008608A62086820F449
:101E2000802008604FF000600A654CF8800C704715
:101E300040F23460C2F20000FFF734BE10B5D0F8B3
:101E400000E0B0F1A04F15DA40F6FF33C4F2000312
:101E5000984225DCB0F1804F48D040F20043C4F2F4
:101E60000003984242D040F60003C4F200039842B7
:101E70003CD040E040F6FF33C5F20003984223DC3B
:101E8000B0F1A04F32D040F20043C5F200039842B7
:101E90002CD040F60003C5F20003984226D02AE079
:101EA00040F60043C4F2000398421FD042F60043BC
:101EB000C4F20103984219D043F20043C4F2010373
:101EC000984213D017E000BF40F60043C5F200036C
:101ED00098420BD043F20043C5F20103984205D06B
:101EE00042F60043C5F20103984204D14B682EF03C
:101EF000700243EA020E42F6FF3CB0F1A04FC5F279
:101F0000010C1DDA42F6FF33C4F2010398422FDDC3
:101F100043F6FF73C4F20103984243DD44F2000329
:101F2000C4F2010398426DD044F20043C4F20103AD
:101F3000984267D044F60003C4F2010360E000BF9A
:101F4000604523DD43F6FF73C5F20103984235DD9A
:101F500044F20003C5F20103984253D044F6000353
:101F6000C5F2010398424DD044F200432EE000BF79
:101F700040F2FF73C4F2000398422BDCB0F1804FB3
:101F800040D040F20043C4F2000339E040F2FF7356
:101F9000C5F20003984229DCB0F1A04F32D040F2E4
:101FA00000432BE042F60043C4F20103984229D0DB
:101FB00043F20043C4F2010322E000BF42F60043B3
:101FC000C5F2010398421DD043F20043C5F201035C
:101FD00016E000BF40F60003C4F20003984211D09F
:101FE00040F60043C4F200030AE000BF40F60003DD
:101FF000C5F20003984205D040F60043C5F2000345
:10200000984204D1CB682EF4407243EA020E0A686B
:102010008C684B696045C462826217DC43F6FF72CC
:10202000C4F20102904227DD44F20002C4F2010230
:10203000904239D044F20042C4F20102904233D0BF
:1020400044F60002C4F201022CE000BF43F6FF7226
:10205000C5F2010290421BDD44F20002C5F201020A
:10206000904221D044F60002C5F2010290421BD0FA
:1020700044F2004214E000BF42F60042C4F2010202
:10208000904211D043F20042C4F201020AE000BFC4
:1020900042F60042C5F20102904205D043F20042EE
:1020A000C5F20102904201D10969016302682EF074
:1020B000800142F004021943026001224261016082
:1020C00010BD0000FEE700009EB0FEF745FA06A82E
:1020D00008303021FEF791F900244FF44030CDE96B
:1020E0000444CDE90244CDE90044FEF717FB18B1E2
:1020F00072B600BFFEE700BF4FF4803101200791A8
:10210000022103250690CDE91550CDE91A100C20C7
:102110000A22CDE91C0406A814911794CDE91821D0
:10212000FEF7EAFD10B172B6FEE700BF1F20CDE951
:1021300000050020CDE90200CDE904006846042135
:10214000FEF78CFB10B172B6FEE700BFFFF7CEFDC5
:1021500000F026F8FFF7ACFD00F04AF8FEE70000BB
:1021600010B5EFF3058119B16FF0050010BD00BF88
:10217000044601F0CFFB012808D1002C04BF002049
:1021800010BD204600F0F6FF002010BDEFF31080D8
:102190000028E9D1EFF311800028E5D1EDE7000038
:1021A00080B5EFF3058018B16FF0050080BD00BF6A
:1021B00001F0B0FB012811D101F0ACFB01284FF078
:1021C000FF3018BF80BD40F27411C2F200010A68EE
:1021D000002A02BF01200860002080BDEFF31080BC
:1021E0000028E1D1EFF311800028DDD1E4E7000001
:1021F00010B5EFF3058018B16FF00504204610BD4F
:1022000001F088FB012819D101F084FB01284FF06F
:10221000FF3410D140F27410C2F2000001680129AD
:1022200009D14EF61F51CEF2000100240C7002219C
:10223000016001F04BF8204610BD00BFEFF31080A5
:102240000028D9D1EFF311800028D5D1DCE70000B8
:10225000F0B585B000230C460493EFF3058119B166
:10226000184605B0F0BD00BF1646054601F052FB0A
:10227000012801D165B951E0EFF3108000284DD15C
:10228000002DEFF311804FF00003E9D00028E7D1D3
:1022900076B3B069002808BF182038283ED83179B5
:1022A000C9073BD1D6F814E0D6E902C74FEA9E022F
:1022B0003168BEF1000F134608BF8023BCF1000F48
:1022C00028D05C2F2AD3BEF1000F4FF00003C7D0F7
:1022D0003669002EC4D0CDE9000628462346CDF845
:1022E00008C001F0D9FA0346184605B0F0BD00BF9A
:1022F0000021802318209AB204AF0090284623467C
:10230000019701F097FA01280CBF049B002318469F
:1023100005B0F0BD17B93269002AECD00023184689
:1023200005B0F0BD2DE9F04140F2780640F270773B
:10233000C2F20006C2F200070D46D6F814803968D2
:102340000446081D00F0F2FC601C17D1B5B13868D6
:1023500039683A683B68D7F800C056F8605F74681F
:10236000CCF81460A7688460CF60A068111D41603C
:10237000181DA060681C3060BDE8F081386814EB5F
:102380000804446006D3F06939680431BDE8F041BF
:1023900000F012BDB0693968043100F00DFDF06A3B
:1023A000844238BFF462BDE8F08100002DE9F043BB
:1023B00081B0044600F032FD40F27806C2F2000619
:1023C000B06840F270780130B060C2F20008D8F80E
:1023D000000040F27475C2F2000568B1F068002890
:1023E00040F00A81D8F80000E16AC06A884298BFCC
:1023F000C8F8004000E100BFC8F80040B0680128FC
:1024000040F0FA80284600F0C7FC05F1140000F007
:10241000C3FC05F1280000F0BFFC05F13C0000F012
:10242000BBFC05F1500000F0B7FC05F1640000F0C2
:10243000B3FC05F1780000F0AFFC05F18C0000F072
:10244000ABFC05F1A00000F0A7FC05F1B40000F022
:10245000A3FC05F1C80000F09FFC05F1DC0000F0D2
:102460009BFC05F1F00000F097FC05F5827000F090
:1024700093FC05F58C7000F08FFC05F5967000F06C
:102480008BFC05F5A07000F087FC05F5AA7000F044
:1024900083FC05F5B47000F07FFC05F5BE7000F01C
:1024A0007BFC05F5C87000F077FC05F5D27000F0F4
:1024B00073FC05F5DC7000F06FFC05F5E67000F0CC
:1024C0006BFC05F5F07000F067FC05F5FA7000F0A4
:1024D00063FC05F5027000F05FFC05F5077000F085
:1024E0005BFC05F50C7000F057FC05F5117000F071
:1024F00053FC05F5167000F04FFC05F51B7000F05D
:102500004BFC05F5207000F047FC05F5257000F048
:1025100043FC05F52A7000F03FFC05F52F7000F034
:102520003BFC05F5347000F037FC05F5397000F020
:1025300033FC05F53E7000F02FFC05F5437000F00C
:102540002BFC05F5487000F027FC05F54D7000F0F8
:1025500023FC05F5527000F01FFC05F5577000F0E4
:102560001BFC05F55C7000F017FC05F5617000F0D0
:1025700013FC05F5667000F00FFC05F56B7000F0BC
:102580000BFC05F5707000F007FC05F5757000F0A8
:1025900003FC05F57A7000F0FFFB05F57F7000F095
:1025A000FBFB05F5826000F0F7FB05F2244000F02C
:1025B000F3FB05F5876000F0EFFB05F24C4000F0FF
:1025C000EBFB40F24C19C2F20009484600F0E4FB74
:1025D00009F11407384600F0DFFB06F14C0000F06B
:1025E000DBFB06F1380000F0D7FB06F1600000F0DD
:1025F000D3FBC6F81890F7613068316A421CE06A74
:1026000032608842626488BF306200EB8000271D20
:1026100005EB80014A6861619368A260E36093689A
:1026200097605F6055F82010013145F8201000F0E8
:1026300005FCF06850B1D8F80000E16AC06A884231
:1026400004D201B0BDE8F04300F098BC01B0BDE891
:10265000F083000040F2780540F27476C2F2000583
:10266000C2F2000603E000BF204600F0FFFB6868EE
:10267000D0B100F0D3FB686CC468201D00F056FB9D
:10268000A8680138A86068680138686000F0D6FB67
:1026900094F859000228EAD00128E5D050B9206BFF
:1026A00000F0E4FBE0E700BF30680228DFD300F071
:1026B00065FCDCE700F02EFBFEE700002DE9F043AF
:1026C00081B00A9C8146206B16460F46089D9100FA
:1026D000A5229846FDF767FE206B002F53D039786E
:1026E00084F83410397800294AD0797884F8351084
:1026F0007978002944D0B97884F83610B97800295F
:102700003ED0F97884F83710F978C9B3397984F86C
:1027100038103979A1B3797984F83910797979B396
:10272000B97984F83A10B97951B3F97984F83B1042
:10273000F97929B3397A84F83C10397A01B3797A76
:1027400084F83D10797AD9B1B97A84F83E10B97A13
:10275000B1B1F97A84F83F10F97A89B1397B84F8FC
:102760004010397B61B1797B84F84110797B39B1B4
:10277000B97B84F84210B97B11B1F97B84F843101E
:10278000002184F84310382D04D300F0C3FA00BFB1
:10279000FEE700BF00EB8600099F043820F0070623
:1027A000201DE562E56400F003FB04F1180000F071
:1027B000FFFAC5F13800216BA06130464A46434616
:1027C0002461646200F06EFA002F206018BF3C6044
:1027D00001B0BDE8F08300002DE9F047804601F02C
:1027E000A9F840F2EC0AC2F2000ADAF810108146A9
:1027F00088420ED30020C8F800004846CAF810905E
:10280000BDE8F08700F0FE0086F82800316A304607
:102810008847DAF80800016801B3C068C668046830
:10282000371D384600F082FA96F828004107E9D5AE
:10283000B069051900197560366108D2316A3046F1
:102840008847B0692918054475603661F6D3DAF80F
:102850000C00394600F0B0FAD8E700BFDAF80C10E7
:10286000CAE902100120C8F800004846CAF81090D2
:10287000BDE8F08710B582B00020019040F20C0056
:10288000C2F20000046800F045FA601C08D000BFE6
:10289000FEE700BF019830B9019820B9019810B93E
:1028A00001980028F6D002B010BD000086B040F2BA
:1028B000EC0B0DF10809C2F2000B0DF1040800BF8A
:1028C000DBF808000668002E1ABFC06807680027FA
:1028D00000F060FD4846FFF77FFF029911B101F05B
:1028E00059F94AE005463EB3AF4225D801F052F906
:1028F000DBF80800C068C66806F1040A504600F01C
:1029000015FA96F82800410709D400F0FE002FE0E0
:10291000E91B814226D3316A304688472746B06991
:102920003661C419AC427460F2D9BD4201D2BC42D6
:10293000F1D2DBF8080017E016B1002206E000BF74
:10294000DBF80C000068B0FA80F04209DBF8000008
:10295000791B00F0AFFB01F01DF970B900F00EFB20
:102960000BE000BFDBF80C00514600F025FA01E057
:1029700086F82800316A30468847DBF8000049466F
:10298000002200F063FE00289AD00298B0F1FF3FC9
:1029900006DCDDE903200599904702980028ECD475
:1029A000049E706900281CBF301D00F0BFF940462E
:1029B000FFF712FF029901390829DED80746DFE840
:1029C00001F005051B234505051B230096F828107B
:1029D000039AB06941F0010386F828308318354620
:1029E00045F8043FBB42366126D9974201D2934253
:1029F00034D2DBF8080024E096F8280000F0FE004E
:102A000086F82800B9E700BF96F8280040F00101D9
:102A1000039886F828100028B06143D03844314626
:102A200041F8040F3661B8428CBFDBF80800DBF8D0
:102A30000C0000F0C1F9A0E7BA1A82420ED2DBF80E
:102A40000C00294600F0B8F997E700BF96F8280077
:102A50008107D3D4304600F009FA8EE74A0703D441
:102A600001F0FE0084E700BF0399014408E000BFC5
:102A7000791A814210D3316A30468847B0692146BD
:102A80000C18BC4274603661F2D98F4201D28C427C
:102A9000F1D2DBF8080001E0DBF80C00294600F079
:102AA0008BF967E700F036F9FEE70000F0B581B07A
:102AB000044600F0B3F994F94560012E0FDB04F1F0
:102AC000240500BF286850B1284600F0F5FF002813
:102AD00018BF00F091FB70B2013E0128F2DCFF2626
:102AE00084F8456000F0AAF900F098F994F9447070
:102AF000012F0EDB04F11005286850B1284600F0C4
:102B0000DBFF002818BF00F077FB78B2013F0128F7
:102B1000F2DC84F8446001B0BDE8F04000F08EB90A
:102B20002DE9F04140F23018C2F20008D8F8001048
:102B300061B1044600F02EFC04F10802092A09D212
:102B4000002401F027F82046BDE8F08100F0E2F80B
:102B5000FEE700BF14F0070006D0A0F109018A4289
:102B600060D8101A00F10802012A4FF00004E8DBD7
:102B7000D8F804008242E4D8464656F8147FBC4692
:102B80005CF8043F93422FD23D68CDB16B6893420D
:102B90001AD22968C1B14B6893421BD20868C8B1E8
:102BA000436893421CD20768D7B17B68934202D234
:102BB0003D68002DEAD107F1040C064614E000BF81
:102BC00008F1140610E000BF05F1040C3E462F4644
:102BD0000AE000BF01F1040C2E460F4604E000BFDE
:102BE00000F1040C0E460746D8F80000874219D0C1
:102BF00034683968981A1128316035D3BB18586089
:102C0000CCF8002008F114021068984210D2026833
:102C10009A4211D2106898420AD2026805469A4236
:102C2000F2D30AE0002400F0B5FF2046BDE8F081B1
:102C30001546024601E000BF0546696858686E18EF
:102C40009E4202D108442B4668601918914207D170
:102C5000D8F800108A4203D0D2E900210844586015
:102C60009D421A6018BF2B60D8E90112DCF8000001
:102C70000834081A9042C8F8040038BFC8F80800A1
:102C8000DCF8000040F00040CCF80000D8F80C1050
:102C900000203860481CC8F80C0000F07BFF20467C
:102CA000BDE8F08170B540F8481D4FF08071416477
:102CB0004FF002314FF00134C0E90B4142F675018B
:102CC0004FF0123C4FF0033E4FF01135C0F60001BB
:102CD00002644FF004326FF04306C0E90953C0F8B4
:102CE00034E0C0E90EC14FF0103C4FF0093E4FF008
:102CF00008334FF00531C0E9016200F10C024FF0DA
:102D000007354FF0063432C2C0E9063EC0F820C095
:102D100070BD0000EFF311804FF0500181F3118876
:102D2000BFF34F8FBFF36F8F70470000D0E90132C0
:102D30000169D1F804C09A6082688445536008BF75
:102D40004A6000220261086801380860086870471C
:102D500040F6D853C2F20003036040F6D830C2F206
:102D600000000860802010607047000041F23403CA
:102D7000C2F20003036040F63460C2F20000086053
:102D8000802010607047000080F31188BFF34F8FE0
:102D9000BFF36F8F704700004FF0FF31024642F8DB
:102DA000081F00214260C0E9032201607047000053
:102DB000002101617047000010B5D1F800C01CF17E
:102DC000010213D000F1080462681368634511D84A
:102DD00053681C68644511D85A68146864450FD854
:102DE00054682368A6466345EED90BE00269D2F821
:102DF00004E007E09646224604E000BF9E4601E05C
:102E000096461A46C1F804E0CEF808108A60516070
:102E1000086101680131016010BD000080B5FFF755
:102E200079FF40F20C00C2F200000168013101603C
:102E3000BFF34F8FBFF36F8F80BD000080B540F2AE
:102E40000C00C2F20000016861B101680139016043
:102E50000068002818BF80BD0020BDE88040FFF753
:102E600093BF00BFFFF756FFFEE70000B0B5002894
:102E700008BFB0BD044650F8040C002804D4FFF786
:102E800049FF00BFFEE700BFA4F10805296819B19A
:102E9000FFF740FFFEE700BF20F0004044F8040CBD
:102EA00000F078FA40F2301CC2F2000C54F8042C06
:102EB000DCF804101144CCF804100CF1140100BF2C
:102EC0000B68AB420AD21968A94229D20B68AB42FF
:102ED00004D219681C46A942F2D301E00C461946F7
:102EE0006368E018A84202D11A4425466260A81817
:102EF000884207D1DCF80000814203D0D1E90010FC
:102F000010446860AC42296018BF2560DCF81000EE
:102F10000130CCF81000BDE8B04000F03BBE00BF6F
:102F20001C466368E018A842E1D1DDE780B58069FE
:102F300010F8020C662803D1BDE8804000F0E8B824
:102F4000FFF7E8FEFEE700004EF21000CEF20000B0
:102F500000210160816040F20801C2F200010968AD
:102F600044F6D352C1F26202A1FB02124FF0FF31CC
:102F700001EB921141600721016070474EF6045049
:102F8000CEF200004FF080510160BFF34F8FBFF3CE
:102F90006F8F704710B5002870D0002908BF10BD92
:102FA00041F29003C2F200035A6882426AD0DA68A2
:102FB000824269D01A4652F8084F4FF0000C002C9C
:102FC00018BF62461C68D3F814E0002C08BF1A46EC
:102FD000864561D09E465EF8104F002C08BFF4462F
:102FE000002ADEF80C4018BF9446844250D09E461A
:102FF0005EF8182F002A4FF0000208BF7246DEF874
:103000000C40BCF1000F18BF624684424FF0000C28
:103010003ED09E465EF8204F002C08BFF446002AA2
:10302000DEF80C4018BF9446844231D01C4654F858
:10303000282F4FF0000E002A08BFA646BCF1000F53
:10304000E26818BFE64682424FF000022AD09C4652
:103050005CF8304F002C08BF6246BEF1000FDCF870
:103060000C4018BF7246844220D0BAB953F8382FAA
:10307000002A1A4608BFC2E9001011E0FFF74AFE15
:10308000FEE700BF1A4609E003F1080206E000BFB0
:103090000EF1080202E000BF03F11002C2E90010C5
:1030A00010BD00BF04F10802F8E700BF0CF10802F0
:1030B000F4E7000070B515460E460446FFF7AEFE75
:1030C00094F84400FF2804BF002084F8440094F8DA
:1030D0004500FF2804BF002084F84500FFF7AEFE3E
:1030E000A06B28B12046BDE87040FFF7DFBC00BFF1
:1030F00004F1240031462A4600F09CF82046BDE841
:103100007040FFF7D3BC000000000000000000008A
:103110000B4A1168086806C881F30B88022181F305
:103120001488203080F30988BFF36F8F4FF00000C0
:1031300080F31188104700BF00BF00BF00BF00BF71
:1031400070070020000000000000000000000000E8
:1031500007480068006880F3088862B661B6BFF36C
:103160004F8FBFF36F8F66DF00BF00BF00BF00BF90
:1031700008ED00E0F0B581B078B340F27805C2F216
:1031800000050446286918B1FFF7C4FDFEE700BF3B
:10319000286940F2707601302861C2F200066F693A
:1031A00030680430FFF7C2FD3068E419446005D38D
:1031B000E86931680431FFF7FFFD08E0A86931686C
:1031C0000431FFF7F9FDE86A844238BFEC6200F091
:1031D000E1FC00281CBF01B0F0BD01B0BDE8F0402B
:1031E000FFF7CCBE40F27801C2F200014A6B0260E8
:1031F000496941607047000040F27800C2F2000067
:10320000012141627047000010B578B10C4640F2D0
:103210007071C2F2000109681831FFF7CDFD204638
:103220000121BDE81040FFF77DB800BFFFF772FD38
:10323000FEE70000F0B581B010B340F27075C2F245
:1032400000050C4641682B68D9618B682E68336293
:103250002B688E6803F1180373602B6803F1180361
:103260008B6029688862016801F1010101605AB12F
:103270004FF0FF30114601B0BDE8F040FFF752B803
:10328000FFF748FDFEE700BF40F27806C2F20006F5
:10329000776928680430FFF749FD2868E41944601D
:1032A00008D3F0692968043101B0BDE8F040FFF7A8
:1032B00083BD00BFB06929680431FFF77DFDF06A66
:1032C000844238BFF46201B0F0BD000070B588B030
:1032D0000020CDE9050006A805A904AAFFF738FDDE
:1032E000059E002E42D0069C002C43D05C20049DFD
:1032F000079007985C2841D1079820465C21FDF78C
:103300005AF8022084F8590007A800212663CDE965
:10331000001042F25560C0F600001CA12A460023AE
:103320000294FFF7CBF92046FFF740F8079840F2E8
:103330007804C2F20004A06280B100F0BFFC411C1E
:1033400020D001280AD1FFF7E5FC4FF0FF30E06202
:103350000120E0600020606100F07AF843F64060F0
:10336000C0F60000006808B070BD00BFFFF7D2FCD7
:10337000FEE700BFFFF7CEFCFEE700BFFFF7CAFC89
:10338000FEE700BFFFF7C6FCFEE700BF49444C451F
:103390000000000040F27800C2F200000169013133
:1033A0000161704780B540F2780CC2F2000CDCF885
:1033B000100018B10120CCF8240080BD0020CCF80A
:1033C0002400DCF8201040F2747201EB8100C2F29C
:1033D000000252F82030BBB101EB810002EB800EFD
:1033E000734653F8042F5268181D82421A6002D1A6
:1033F000DEF80C201A60D06840F27072C2F200024F
:103400001060CCF8201080BD02EB8000A0F12803F2
:10341000A1B15869B0B9012910D01868A0B9022922
:103420000CD053F8140C88B9032907D053F8280C92
:1034300004390028A3F15003EAD0CDE7FFF76AFC76
:10344000FEE700BF0139C7E70239C5E70339C3E723
:10345000B0B584B000214EF61C50CEF200000191B0
:10346000016802914FF07F4101600168090E8DF8FB
:1034700003109DF8031011F0500240F22811C2F21F
:1034800000010A7076D09DF8032002F05002502A05
:1034900074D19DF90320B2F1FF3F51DD019A002460
:1034A000082A4FF0000206D0019A4FF4E063A3EB24
:1034B000022202F4E0624A6002990160416841F42C
:1034C0007F014160416841F07F414160FFF73CFD71
:1034D00040F20C05C2F200052C60FFF739FEFFF741
:1034E00061FF03942C68FFF715FC601C3CD000BF03
:1034F000FEE700BF019A013201929DF803205200BD
:103500008DF803209DF90320B2F1FF3FC6DC019A3C
:10351000013201929DF8032052008DF803209DF99D
:103520000320B2F1FF3FB9DC019A013201929DF80C
:10353000032052008DF803209DF90320002AADD509
:10354000019A013201929DF8032052008DF8032068
:103550009DF90320002ACDD4A0E700BF039830B91D
:10356000039820B9039810B903980028F6D00020DA
:1035700004B0B0BDFFF7CEFBFEE700BFFFF7CAFB0C
:10358000FEE7000010B5FFF7C5FB044600F0D8F9D0
:1035900030B14EF60450CEF200004FF08051016081
:1035A0002046BDE81040FFF7EFBB000070B582B0C9
:1035B00053B120B11C4601B90AB949B142B9FFF76C
:1035C000A9FB00BFFEE700BFFFF7A4FBFEE700BFBB
:1035D00050230193019B502B10D1019B0123002903
:1035E00084F8463014BF22602460E063A0FB01022F
:1035F00021643AB1FFF78EFBFEE700BFFFF78AFBBD
:10360000FEE700BF069EFFF709FCD4E90F12206811
:103610000025A56302FB0103013901FB0201C4E996
:103620000103FF20E16084F8440084F8450004F1C0
:103630001000FFF7B1FB04F12400FFF7ADFBFFF72B
:10364000FDFB204684F84C6002B070BD2DE9F047C8
:1036500084B0039260B116460D46044691B300F063
:1036600059F948B946B1FFF755FB00BFFEE700BF67
:10367000FFF750FBFEE700BFFFF7D0FBA76B4FB390
:10368000226C52B1D4E902308118E160994224BF22
:103690002168E1602846FCF741FE781EA06354F8DB
:1036A000100F002872D0204600F006FA002818BF3C
:1036B000FFF764FC0126FFF7C1FB304604B0BDE80C
:1036C000F08700BF206C0028C9D0FFF723FB00BFA4
:1036D000FEE700BF002E4FF0000658D00DF1040A9F
:1036E000504604F12408FFF77DFD0DF10C0900BFE1
:1036F000FFF7A4FBFFF74EFEFFF790FB94F84400A2
:10370000FF2808BF84F8446094F84500FF2808BFEC
:1037100084F84560FFF792FB5046494600F044F8B4
:1037200060B12046FFF7C2F900F034FAFFF776FBEC
:10373000A76BFFF783FBCFB930E000BFFFF76EFB4D
:10374000A76BFFF77BFB2FB12046FFF7AFF900F027
:1037500021FA0BE003994046FFF756FD2046FFF79C
:10376000A5F900F017FA08B9FFF708FCFFF756FBB8
:10377000A76B002F7FF484AF03980028B8D10026F0
:10378000FFF75CFB304604B0BDE8F0870126FFF789
:1037900055FB304604B0BDE8F08700BF0026304638
:1037A00004B0BDE8F0870000B0B5E8B10D46F9B14E
:1037B0000446FFF733FB40F2780CC2F2000CDCF851
:1037C00014202968481C17D06368DCF834E09A425A
:1037D00018D32068864515D0002028600124FFF703
:1037E0002DFB2046B0BD00BFFFF794FAFEE700BFF7
:1037F000FFF790FAFEE700BF0024FFF71FFB20460B
:10380000B0BD00BFD01A81420CD9081A2860DCF87C
:1038100034002060DCF8140060600024FFF70EFB29
:103820002046B0BD002001242860FFF707FB20469A
:10383000B0BD00002DE9F04F83B0074690009846D8
:1038400015468946FFF76CF908B306465C20FFF77A
:1038500067F9C8B1DDE90CBA5C210446FCF7ABFDA1
:10386000002084F85900384649462A4643462663D4
:10387000CDE900BA0294FEF721FF2046FEF796FD3F
:10388000012003B0BDE8F08F3046FFF7EFFA4FF0AC
:10389000FF3003B0BDE8F08F2DE9F04786B00F9EF2
:1038A00066B3DDF84090B9F1000F2BD004465C20E0
:1038B000049004985C2829D104980F46DDF838A0BC
:1038C00048465C2198461546FCF775FD022089F8AC
:1038D000590005A8C9F83060CDE900A02046394656
:1038E0002A464346CDF80890FEF7E8FE4846FEF724
:1038F0005DFD059806B0BDE8F08700BFFFF70AFA46
:10390000FEE700BFFFF706FAFEE700BFFFF702FA87
:10391000FEE7000040F27800C2F20000C168002912
:103920000FBF01200069B0FA80F0400918BF4000C5
:103930007047000040F27800C2F200004069704712
:103940002DE9F04740F2780AC2F2000ADAF81000D6
:1039500040B1DAF830000130CAF830000020BDE88C
:10396000F08700BFDAF8140010F10109CAF81490CA
:1039700022D3DAF81800006820B1FFF7CBF900BFB6
:10398000FEE700BFDAF81800DAF81C30CAF8183081
:10399000CAF81C00DAF834000130CAF83400DAF84A
:1039A0001800006820B1DAF81800C068006801E06B
:1039B0004FF0FF30CAF82C00DAF82C0040F2707C8F
:1039C00040F274788145C2F2000CC2F2000801D2C4
:1039D00000205FE0DAF818004FF0000E00680028C1
:1039E00050D0002022E000BFE66ADAF820108E42B4
:1039F00088BFCAF8206006EB860108EB8102536895
:103A000062619F68A360E7609F689D607D6058F871
:103A10002120013248F82120DCF80010C96ADAF8C8
:103A200018208E4288BF0120116879B3DAF8184057
:103A3000E468E468254655F8046FB14528D3D4E915
:103A40000237666972689F60E768AA427B6008BFB8
:103A50007760C4F814E03268013A3260A66A002E3A
:103A6000C2D0D4E9072304F1180193607368276A70
:103A70008B427A6008BF7760C4F828E0316801396A
:103A80003160B1E74FF0FF36002001E04FF0FF3624
:103A9000CAF82C60DCF80010C96A01EB810158F803
:103AA0002110012988BF0120DAF82410002918BF4D
:103AB0000120BDE8F087000070B5C068C06848B359
:103AC000D0E90723816A00F1180ED1F804C0936091
:103AD000036AF4455A6008BF4B60002282620A689C
:103AE00040F2780C013A0A60C2F2000CDCF81010C7
:103AF000A1B1614651F84C2F01324B6881629C683C
:103B0000C36104629C68C3F808E0C4F804E00A607A
:103B1000C36A32E0FFF7FEF8FEE700BFD0E90221FA
:103B2000436900F1040E5C689160C16874454A60A5
:103B300008BF596000214161196840F2747201396F
:103B40001960C36ADCF82010C2F200028B4288BF01
:103B5000CCF8203003EB830102EB810465684461FB
:103B6000AE688560C660AE68C5F808E0C6F804E0D7
:103B700052F82100013042F8210040F27070C2F288
:103B800000000068C06A834292BF00200120CCF888
:103B9000240070BD2DE9F04381B040F27804C2F2F8
:103BA0000004206970B1FFF739F9206901382061FC
:103BB000206958B10024FFF741F9204601B0BDE863
:103BC000F08300BFFFF7A6F8FEE700BFA06800285B
:103BD000F0D0E06C002858D040F2747940F2707E4A
:103BE0004FF00008C2F20009C2F2000E4FF0010CC3
:103BF000A26DD368D3E907759A6A03F11806506875
:103C0000BD601D6AB0426F6008BF5560C3F8288070
:103C10001068013810601A1DD3E902065D696F68EB
:103C20008660DE689742706008BF6E60C3F81480DB
:103C3000286801382860DD6A206A854288BF2562CD
:103C400005EB850009EB800677685E61B9689F60C7
:103C5000D960B968BA604A6059F82010013149F852
:103C60002010DEF80000C06A854288BFC4F824C076
:103C7000E06C0028BCD1A069006818B1A069C068D8
:103C8000006801E04FF0FF30E062256B4DB1012686
:103C9000FFF756FE002818BF6662013DF8D10020EC
:103CA0002063606A00283FF485AFFFF767F90124BD
:103CB000FFF7C4F8204601B0BDE8F08370B586B0C8
:103CC000FFF7ACF840F2EC06C2F20006306808BB21
:103CD00006F114042046FFF75FF806F12805284690
:103CE000FFF75AF840F2806240F22073C6E90245BD
:103CF00000250A20C2F200021021C2F20003009542
:103D0000FFF754FC306028B143F63961C0F600017A
:103D1000FFF740F9FFF792F83068E0B10020CDE9F5
:103D2000040005A804A903AAFFF720F8DDE9032091
:103D30000221059D0023CDE9001042F6AD00C0F63A
:103D4000000007A10295FFF7A7FD002870601EBFC5
:103D5000012006B070BDFEF7DDFF00BFFEE700BF2B
:103D6000546D722053766300F1EE100A4FF6FF7126
:103D7000C0F2C03120EA010040F04070E1EE100ACC
:103D80007047000000000000000001020304060765
:103D9000080900000000010203040000006CDC02BE
:103DA00000366E010024F400001BB70000093D003E
:103DB00080841E00504B140040420F0000E02E0093
:103DC0000070170000A00F0000B80B00801A06005A
:103DD000400D030088070200A08601002D3E000868
:103DE00000000000780500205C0000007801002041
:103DF00000020000180000000000000000000000A9
:103E0000243E000800000000D40500205C000000F3
:103E100078030020000200000800000000000000FD
:103E2000000000006D795461736B30320064656688
:103E300061756C745461736B00546D7251000000B5
:103E400037000000683E000800000020100000005D
:103E500074020008783E000810000020C016000020
:103E600090020008000000000100000010000000A7
:083E700000093D00AAAAAAAA5C
:0400000508000239B4
:00000001FF
